S01300004B6E6967687452696465722E73726563B6
S11300000C9434000C943E000C943E000C943E007E
S11300100C943E000C943E000C943E000C943E0064
S11300200C943E000C943E000C943E000C943E0054
S11300300C943E000C943E000C943E000C943E0044
S11300400C943E000C943E000C943E000C943E0034
S11300500C943E000C943E000C943E000C943E0024
S11300600C943E000C943E0011241FBECFEFD8E048
S1130070DEBFCDBF0E9440000C94CC000C94000065
S1130080219A2998229A2A98239A2B98249A2C9870
S1130090259A2D985098589A52E024E098E080E1EF
S11300A040E24899FECF35B1352735B93FEF63ECCF
S11300B079E0315060407040E1F700C0000035B194
S11300C0352735B935B1322735B93FEF63EC79E0DF
S11300D0315060407040E1F700C0000035B1322774
S11300E035B935B1392735B93FEF63EC79E0315093
S11300F060407040E1F700C0000035B1392735B9E0
S113010035B1382735B93FEF63EC79E031506040C1
S11301107040E1F700C0000035B1382735B935B17A
S1130120342735B93FEF63EC79E0315060407040DB
S1130130E1F700C0000035B1382735B935B13427AF
S113014035B93FEF63EC79E0315060407040E1F73E
S113015000C0000035B1392735B935B1382735B974
S11301603FEF63EC79E0315060407040E1F700C04C
S1130170000035B1322735B935B1392735B93FEFEC
S113018063EC79E0315060407040E1F700C000005A
S10F019035B1322735B985CFF894FFCF84
S9030000FC
