S01500007061726B696E6773656E736F722E7372656389
S11300000C9434000C941F020C94DF010C945100E6
S11300100C9451000C9451000C9451000C94510018
S11300200C9451000C9451000C9451000C94510008
S11300300C9451000C9451000C9451000C945100F8
S11300400C9451000C9451000C94C90E0C94F70EAE
S11300500C9451000C9451000C9451000C945100D8
S11300600C9451000C94510011241FBECFEFD8E022
S1130070DEBFCDBF11E0A0E0B1E0E8E4F2E202C0EF
S113008005900D92A43EB107D9F722E0A4EEB1E0A9
S113009001C01D92A436B207E1F70E94CD0C0C9466
S11300A022110C940000FC01408121E030E002C0E8
S11300B0220F331F6A95E2F7242B20830895FC0155
S11300C0808121E030E002C0220F331F6A95E2F7FD
S11300D02095822380838081818128232183089530
S11300E0FC01908121E030E002C0220F331F6A95A9
S11300F0E2F72095292320830895FC01408121E023
S113010030E002C0220F331F6A95E2F7242B2083CC
S11301100895FC01408121E030E002C0220F331F2A
S11301206A95E2F7242720830895FC01808190E0FA
S113013002C0959587956A95E2F781700895299A8A
S113014085E08A95F1F7000029980895CF93C82F88
S1130150662311F0289A01C02898549A559A569A01
S1130160579A5F985E985D985C98CC230CF45F9ADC
S1130170C6FD5E9AC5FD5D9AC4FD5C9A0E949F000F
S11301805F985E985D985C98C3FD5F9AC2FD5E9A25
S1130190C1FD5D9AC0FD5C9A0E949F005C9A5D9AC5
S11301A05E9A5F9A87EB9BE00197F1F700C000002D
S11301B0CF91089560E00E94A600089561E00E9436
S11301C0A6000895611104C080580E94DA000895C1
S11301D080540E94DA00089581E00E94DA000895B4
S11301E061E00E94A6000895CF93DF93EC0121966D
S11301F0FC018081882329F00E94F00089918111FB
S1130200FBCFDF91CF910895CF93C82F209A559AB1
S1130210219A549A559A569A579A8FEF99EF0197C3
S1130220F1F700C000005D9A5C9A0E949F008FE184
S11302309EE40197F1F700C000000E949F008FEF39
S113024090E00197F1F700C000000E949F008FEF3B
S113025090E00197F1F700C000005C980E949F00B5
S11302608FEF90E00197F1F700C0000088E20E9450
S1130270DA0088E00E94DA000E94EC0086E00E9426
S1130280DA008C2F0E94DA00CF91089561E087E2B2
S113029090E00E94530062E087E290E00E945300E5
S11302A063E087E290E00E94530064E087E290E01C
S11302B00E94530065E087E290E00E94530060E0F2
S11302C087E290E00E945300089561E088E290E0A4
S11302D00E94700062E088E290E00E94700063E097
S11302E088E290E00E94700064E088E290E00E945E
S11302F0700065E088E290E00E9470000895833009
S11303009105F1F034F48130910549F0029769F0D8
S113031008958430910521F10597B9F1089561E0BC
S113032088E290E00E948900089561E088E290E00C
S11303300E94890062E088E290E00E9489000895AA
S113034061E088E290E00E94890062E088E290E047
S11303500E94890063E088E290E00E948900089589
S113036061E088E290E00E94890062E088E290E027
S11303700E94890063E088E290E00E94890064E0C2
S113038088E290E00E948900089561E088E290E0AC
S11303900E94890062E088E290E00E94890063E0A4
S11303A088E290E00E94890064E088E290E00E9484
S11303B0890065E088E290E00E94890008951F9218
S11303C00F920FB60F9211242F933F934F935F9385
S11303D06F937F938F939F93AF93BF93CF93DF9349
S11303E0EF93FF93C4EED1E0688179818A819B8188
S11303F020E030E040E85FE30E945F0F6883798388
S11304008A839B8363E089E290E00E9495008111D6
S1130410EBCF81E080933001FF91EF91DF91CF9199
S1130420BF91AF919F918F917F916F915F914F9108
S11304303F912F910F900FBE0F901F9018951F9210
S11304400F920FB60F9211242F933F934F935F9304
S11304506F937F938F939F93AF93BF93CF93DF93C8
S1130460EF93FF93C4EED1E06C817D818E819F81F7
S113047020E030E040E85FE30E945F0F6C837D83FF
S11304808E839F8362E089E290E00E94950081114F
S1130490EBCF81E080933001FF91EF91DF91CF9119
S11304A0BF91AF919F918F917F916F915F914F9188
S11304B03F912F910F900FBE0F901F901895843F7E
S11304C021E092074CF060E084E10E94E20081E3C5
S11304D091E00E94F40008959C012B5E31402A3083
S11304E0310580F460E084E10E94E20081E00E9432
S11304F0F00060E085E10E94E20081E391E00E9467
S1130500F40008959C01215E31402A30310580F4C5
S113051060E084E10E94E20082E00E94F00060E07A
S113052085E10E94E20081E391E00E94F4000895D5
S11305309C01275D31402A30310580F460E084E17C
S11305400E94E20083E00E94F00060E085E10E94E6
S1130550E20081E391E00E94F40008959C012D5C87
S113056031402A30310580F460E084E10E94E200E9
S113057084E00E94F00060E085E10E94E20081E3F3
S113058091E00E94F40008959C01235C31402A30DC
S1130590310580F460E084E10E94E20085E00E947D
S11305A0F00060E085E10E94E20081E391E00E94B6
S11305B0F40008959C01295B31402A303105B8F4D8
S11305C060E084E10E94E20085E00E94F00060E0C7
S11305D085E10E94E20082E00E94F00060E086E192
S11305E00E94E20082E391E00E94F40008959C01DD
S11305F02F5A31402A303105B8F460E084E10E947A
S1130600E20085E00E94F00060E085E10E94E200E3
S113061083E00E94F00060E086E10E94E20082E351
S113062091E00E94F40008959C01255A31402A303B
S11306303105B8F460E084E10E94E20085E00E94A4
S1130640F00060E085E10E94E20084E00E94F00096
S113065060E086E10E94E20082E391E00E94F400FF
S113066008959C012B5931402A303105B8F460E0DB
S113067084E10E94E20085E00E94F00060E085E1F0
S11306800E94E20085E00E94F00060E086E10E94A2
S1130690E20082E391E00E94F40008959C01215954
S11306A031402A303105F0F460E084E10E94E20038
S11306B085E00E94F00060E085E10E94E20085E0B0
S11306C00E94F00060E086E10E94E20081E00E9466
S11306D0F00060E087E10E94E20083E391E00E9481
S11306E0F40008959C01275831402A303105F0F474
S11306F060E084E10E94E20085E00E94F00060E096
S113070085E10E94E20085E00E94F00060E086E15D
S11307100E94E20082E00E94F00060E087E10E9413
S1130720E20083E391E00E94F40008959C012C57B9
S113073031402B303105F0F460E084E10E94E200A6
S113074085E00E94F00060E085E10E94E20085E01F
S11307500E94F00060E086E10E94E20083E00E94D3
S1130760F00060E087E10E94E20083E391E00E94F0
S1130770F40008959C01235731402A303105F0F4E8
S113078060E084E10E94E20085E00E94F00060E005
S113079085E10E94E20085E00E94F00060E086E1CD
S11307A00E94E20084E00E94F00060E087E10E9481
S11307B0E20083E391E00E94F40008959C0129562D
S11307C031402A303105F0F460E084E10E94E20017
S11307D085E00E94F00060E085E10E94E20085E08F
S11307E00E94F00060E086E10E94E20085E00E9441
S11307F0F00060E087E10E94E20083E391E00E9460
S1130800F40008959C012F5531402A30310528F514
S113081060E084E10E94E20085E00E94F00060E074
S113082085E10E94E20085E00E94F00060E086E13C
S11308300E94E20085E00E94F00060E087E10E94EF
S1130840E20081E00E94F00060E088E10E94E200A2
S113085084E391E00E94F40008959C012555314001
S11308602A30310528F560E084E10E94E20085E049
S11308700E94F00060E085E10E94E20085E00E94B1
S1130880F00060E086E10E94E20085E00E94F00052
S113089060E087E10E94E20082E00E94F00060E0F4
S11308A088E10E94E20084E391E00E94F40008954C
S11308B09C012B5431402A30310528F560E084E155
S11308C00E94E20085E00E94F00060E085E10E9461
S11308D0E20085E00E94F00060E086E10E94E20010
S11308E085E00E94F00060E087E10E94E20083E07E
S11308F00E94F00060E088E10E94E20084E391E05D
S11309000E94F40008959C01215431402A3031059D
S113091028F560E084E10E94E20085E00E94F00096
S113092060E085E10E94E20085E00E94F00060E062
S113093086E10E94E20085E00E94F00060E087E129
S11309400E94E20084E00E94F00060E088E10E94DE
S1130950E20084E391E00E94F40008959C0127538F
S113096031402A30310528F560E084E10E94E2003C
S113097085E00E94F00060E085E10E94E20085E0ED
S11309800E94F00060E086E10E94E20085E00E949F
S1130990F00060E087E10E94E20085E00E94F00040
S11309A060E088E10E94E20084E391E00E94F400A8
S11309B008959C012D5231402A30310560F560E0E4
S11309C084E10E94E20085E00E94F00060E085E19D
S11309D00E94E20085E00E94F00060E086E10E944F
S11309E0E20085E00E94F00060E087E10E94E200FE
S11309F085E00E94F00060E088E10E94E20081E06E
S1130A000E94F00060E089E10E94E20085E391E049
S1130A100E94F40008959C01235231402A3031058C
S1130A2060F560E084E10E94E20085E00E94F0004D
S1130A3060E085E10E94E20085E00E94F00060E051
S1130A4086E10E94E20085E00E94F00060E087E118
S1130A500E94E20085E00E94F00060E088E10E94CC
S1130A60E20082E00E94F00060E089E10E94E2007E
S1130A7085E391E00E94F40008959C0129513140DE
S1130A802A30310560F560E084E10E94E20085E0EF
S1130A900E94F00060E085E10E94E20085E00E948F
S1130AA0F00060E086E10E94E20085E00E94F00030
S1130AB060E087E10E94E20085E00E94F00060E0CF
S1130AC088E10E94E20083E00E94F00060E089E196
S1130AD00E94E20085E391E00E94F40008959C01E5
S1130AE02F5031402A30310560F560E084E10E94E6
S1130AF0E20085E00E94F00060E085E10E94E200EF
S1130B0085E00E94F00060E086E10E94E20085E05A
S1130B100E94F00060E087E10E94E20085E00E940C
S1130B20F00060E088E10E94E20084E00E94F000AE
S1130B3060E089E10E94E20085E391E00E94F40014
S1130B4008959C01255031402A30310560F560E05C
S1130B5084E10E94E20085E00E94F00060E085E10B
S1130B600E94E20085E00E94F00060E086E10E94BD
S1130B70E20085E00E94F00060E087E10E94E2006C
S1130B8085E00E94F00060E088E10E94E20085E0D8
S1130B900E94F00060E089E10E94E20085E391E0B8
S1130BA00E94F40008959C012B5F31092A3031051D
S1130BB098F560E084E10E94E20085E00E94F00084
S1130BC060E085E10E94E20085E00E94F00060E0C0
S1130BD086E10E94E20085E00E94F00060E087E187
S1130BE00E94E20085E00E94F00060E088E10E943B
S1130BF0E20085E00E94F00060E089E10E94E200EA
S1130C0081E00E94F00060E08AE10E94E20086E355
S1130C1091E00E94F40008959C01215F31092A307B
S1130C20310598F560E084E10E94E20085E00E94CD
S1130C30F00060E085E10E94E20085E00E94F0009F
S1130C4060E086E10E94E20085E00E94F00060E03E
S1130C5087E10E94E20085E00E94F00060E088E104
S1130C600E94E20085E00E94F00060E089E10E94B9
S1130C70E20082E00E94F00060E08AE10E94E2006B
S1130C8086E391E00E94F40008959C01275E3109F7
S1130C902A30310598F560E084E10E94E20085E0A5
S1130CA00E94F00060E085E10E94E20085E00E947D
S1130CB0F00060E086E10E94E20085E00E94F0001E
S1130CC060E087E10E94E20085E00E94F00060E0BD
S1130CD088E10E94E20085E00E94F00060E089E182
S1130CE00E94E20083E00E94F00060E08AE10E943A
S1130CF0E20086E391E00E94F40008959C012D5DDA
S1130D0031092A30310598F560E084E10E94E2005F
S1130D1085E00E94F00060E085E10E94E20085E049
S1130D200E94F00060E086E10E94E20085E00E94FB
S1130D30F00060E087E10E94E20085E00E94F0009C
S1130D4060E088E10E94E20085E00E94F00060E03B
S1130D5089E10E94E20084E00E94F00060E08AE100
S1130D600E94E20086E391E00E94F40008959C0151
S1130D70235D31092A30310598F560E084E10E9451
S1130D80E20085E00E94F00060E085E10E94E2005C
S1130D9085E00E94F00060E086E10E94E20085E0C8
S1130DA00E94F00060E087E10E94E20085E00E947A
S1130DB0F00060E088E10E94E20085E00E94F0001B
S1130DC060E089E10E94E20085E00E94F00060E0BA
S1130DD08AE10E94E20086E391E00E94F400089513
S1130DE09C01295C31092A303105D0F560E084E1A9
S1130DF00E94E20085E00E94F00060E085E10E942C
S1130E00E20085E00E94F00060E086E10E94E200DA
S1130E1085E00E94F00060E087E10E94E20085E046
S1130E200E94F00060E088E10E94E20085E00E94F8
S1130E30F00060E089E10E94E20085E00E94F00099
S1130E4060E08AE10E94E20081E00E94F00060E03C
S1130E508BE10E94E20087E391E00E94F400089590
S1130E609C012F5B31092A303105D0F560E084E123
S1130E700E94E20085E00E94F00060E085E10E94AB
S1130E80E20085E00E94F00060E086E10E94E2005A
S1130E9085E00E94F00060E087E10E94E20085E0C6
S1130EA00E94F00060E088E10E94E20085E00E9478
S1130EB0F00060E089E10E94E20085E00E94F00019
S1130EC060E08AE10E94E20082E00E94F00060E0BB
S1130ED08BE10E94E20087E391E00E94F400089510
S1130EE09C01255B31092A303105D0F560E084E1AD
S1130EF00E94E20085E00E94F00060E085E10E942B
S1130F00E20085E00E94F00060E086E10E94E200D9
S1130F1085E00E94F00060E087E10E94E20085E045
S1130F200E94F00060E088E10E94E20085E00E94F7
S1130F30F00060E089E10E94E20085E00E94F00098
S1130F4060E08AE10E94E20083E00E94F00060E039
S1130F508BE10E94E20087E391E00E94F40008958F
S1130F609C012B5A31092A303105D0F560E084E127
S1130F700E94E20085E00E94F00060E085E10E94AA
S1130F80E20085E00E94F00060E086E10E94E20059
S1130F9085E00E94F00060E087E10E94E20085E0C5
S1130FA00E94F00060E088E10E94E20085E00E9477
S1130FB0F00060E089E10E94E20085E00E94F00018
S1130FC060E08AE10E94E20084E00E94F00060E0B8
S1130FD08BE10E94E20087E391E00E94F40008950F
S1130FE09C01215A31092A303105D0F560E084E1B1
S1130FF00E94E20085E00E94F00060E085E10E942A
S1131000E20085E00E94F00060E086E10E94E200D8
S113101085E00E94F00060E087E10E94E20085E044
S11310200E94F00060E088E10E94E20085E00E94F6
S1131030F00060E089E10E94E20085E00E94F00097
S113104060E08AE10E94E20085E00E94F00060E036
S11310508BE10E94E20087E391E00E94F40008958E
S11310609C01275931092A30310508F041C060E05C
S113107084E10E94E20085E00E94F00060E085E1E6
S11310800E94E20085E00E94F00060E086E10E9498
S1131090E20085E00E94F00060E087E10E94E20047
S11310A085E00E94F00060E088E10E94E20085E0B3
S11310B00E94F00060E089E10E94E20085E00E9465
S11310C0F00060E08AE10E94E20085E00E94F00006
S11310D060E08BE10E94E20081E00E94F00060E0A9
S11310E08CE10E94E20088E391E00E94F4000895FC
S11310F09C012D5831092A30310508F041C060E0C7
S113110084E10E94E20085E00E94F00060E085E155
S11311100E94E20085E00E94F00060E086E10E9407
S1131120E20085E00E94F00060E087E10E94E200B6
S113113085E00E94F00060E088E10E94E20085E022
S11311400E94F00060E089E10E94E20085E00E94D4
S1131150F00060E08AE10E94E20085E00E94F00075
S113116060E08BE10E94E20082E00E94F00060E017
S11311708CE10E94E20088E391E00E94F40008956B
S11311809C01235831092A30310508F041C060E040
S113119084E10E94E20085E00E94F00060E085E1C5
S11311A00E94E20085E00E94F00060E086E10E9477
S11311B0E20085E00E94F00060E087E10E94E20026
S11311C085E00E94F00060E088E10E94E20085E092
S11311D00E94F00060E089E10E94E20085E00E9444
S11311E0F00060E08AE10E94E20085E00E94F000E5
S11311F060E08BE10E94E20083E00E94F00060E086
S11312008CE10E94E20088E391E00E94F4000895DA
S11312109C01295731092A30310508F041C060E0AA
S113122084E10E94E20085E00E94F00060E085E134
S11312300E94E20085E00E94F00060E086E10E94E6
S1131240E20085E00E94F00060E087E10E94E20095
S113125085E00E94F00060E088E10E94E20085E001
S11312600E94F00060E089E10E94E20085E00E94B3
S1131270F00060E08AE10E94E20085E00E94F00054
S113128060E08BE10E94E20084E00E94F00060E0F4
S11312908CE10E94E20088E391E00E94F40008954A
S11312A09C012F5631092A30310508F041C060E015
S11312B084E10E94E20085E00E94F00060E085E1A4
S11312C00E94E20085E00E94F00060E086E10E9456
S11312D0E20085E00E94F00060E087E10E94E20005
S11312E085E00E94F00060E088E10E94E20085E071
S11312F00E94F00060E089E10E94E20085E00E9423
S1131300F00060E08AE10E94E20085E00E94F000C3
S113131060E08BE10E94E20085E00E94F00060E062
S11313208CE10E94E20088E391E00E94F4000895B9
S11313309C01255631092A30310508F048C060E087
S113134084E10E94E20085E00E94F00060E085E113
S11313500E94E20085E00E94F00060E086E10E94C5
S1131360E20085E00E94F00060E087E10E94E20074
S113137085E00E94F00060E088E10E94E20085E0E0
S11313800E94F00060E089E10E94E20085E00E9492
S1131390F00060E08AE10E94E20085E00E94F00033
S11313A060E08BE10E94E20085E00E94F00060E0D2
S11313B08CE10E94E20081E00E94F00060E08DE197
S11313C00E94E20089E391E00E94F40008959C01E8
S11313D02B5531092A30310508F048C060E084E11A
S11313E00E94E20085E00E94F00060E085E10E9436
S11313F0E20085E00E94F00060E086E10E94E200E5
S113140085E00E94F00060E087E10E94E20085E050
S11314100E94F00060E088E10E94E20085E00E9402
S1131420F00060E089E10E94E20085E00E94F000A3
S113143060E08AE10E94E20085E00E94F00060E042
S11314408BE10E94E20085E00E94F00060E08CE104
S11314500E94E20082E00E94F00060E08DE10E94C0
S1131460E20089E391E00E94F40008959C01215573
S113147031092A30310508F048C060E084E10E9457
S1131480E20085E00E94F00060E085E10E94E20055
S113149085E00E94F00060E086E10E94E20085E0C1
S11314A00E94F00060E087E10E94E20085E00E9473
S11314B0F00060E088E10E94E20085E00E94F00014
S11314C060E089E10E94E20085E00E94F00060E0B3
S11314D08AE10E94E20085E00E94F00060E08BE176
S11314E00E94E20085E00E94F00060E08CE10E942E
S11314F0E20083E00E94F00060E08DE10E94E200DF
S113150089E391E00E94F40008959C012754310975
S11315102A30310508F048C060E084E10E94E2000E
S113152085E00E94F00060E085E10E94E20085E031
S11315300E94F00060E086E10E94E20085E00E94E3
S1131540F00060E087E10E94E20085E00E94F00084
S113155060E088E10E94E20085E00E94F00060E023
S113156089E10E94E20085E00E94F00060E08AE1E7
S11315700E94E20085E00E94F00060E08BE10E949E
S1131580E20085E00E94F00060E08CE10E94E2004D
S113159084E00E94F00060E08DE10E94E20089E3B3
S11315A091E00E94F40008959C012D5331092A30E2
S11315B0310508F048C060E084E10E94E20085E063
S11315C00E94F00060E085E10E94E20085E00E9454
S11315D0F00060E086E10E94E20085E00E94F000F5
S11315E060E087E10E94E20085E00E94F00060E094
S11315F088E10E94E20085E00E94F00060E089E159
S11316000E94E20085E00E94F00060E08AE10E940E
S1131610E20085E00E94F00060E08BE10E94E200BD
S113162085E00E94F00060E08CE10E94E20085E029
S11316300E94F00060E08DE10E94E20089E391E005
S11316400E94F40008959C01235331092A30310586
S113165008F04FC060E084E10E94E20085E00E944F
S1131660F00060E085E10E94E20085E00E94F00065
S113167060E086E10E94E20085E00E94F00060E004
S113168087E10E94E20085E00E94F00060E088E1CA
S11316900E94E20085E00E94F00060E089E10E947F
S11316A0E20085E00E94F00060E08AE10E94E2002E
S11316B085E00E94F00060E08BE10E94E20085E09A
S11316C00E94F00060E08CE10E94E20085E00E944C
S11316D0F00060E08DE10E94E20081E00E94F000F1
S11316E060E08EE10E94E2008AE391E00E94F4004F
S11316F008959C01295231092A30310508F04FC060
S113170060E084E10E94E20085E00E94F00060E075
S113171085E10E94E20085E00E94F00060E086E13D
S11317200E94E20085E00E94F00060E087E10E94F0
S1131730E20085E00E94F00060E088E10E94E2009F
S113174085E00E94F00060E089E10E94E20085E00B
S11317500E94F00060E08AE10E94E20085E00E94BD
S1131760F00060E08BE10E94E20085E00E94F0005E
S113177060E08CE10E94E20085E00E94F00060E0FD
S11317808DE10E94E20082E00E94F00060E08EE1C0
S11317900E94E2008AE391E00E94F40008959C0113
S11317A02F5131092A30310508F04FC060E084E13F
S11317B00E94E20085E00E94F00060E085E10E9462
S11317C0E20085E00E94F00060E086E10E94E20011
S11317D085E00E94F00060E087E10E94E20085E07D
S11317E00E94F00060E088E10E94E20085E00E942F
S11317F0F00060E089E10E94E20085E00E94F000D0
S113180060E08AE10E94E20085E00E94F00060E06E
S11318108BE10E94E20085E00E94F00060E08CE130
S11318200E94E20085E00E94F00060E08DE10E94E9
S1131830E20083E00E94F00060E08EE10E94E2009A
S11318408AE391E00E94F40008959C012551310936
S11318502A30310508F04FC060E084E10E94E200C4
S113186085E00E94F00060E085E10E94E20085E0EE
S11318700E94F00060E086E10E94E20085E00E94A0
S1131880F00060E087E10E94E20085E00E94F00041
S113189060E088E10E94E20085E00E94F00060E0E0
S11318A089E10E94E20085E00E94F00060E08AE1A4
S11318B00E94E20085E00E94F00060E08BE10E945B
S11318C0E20085E00E94F00060E08CE10E94E2000A
S11318D085E00E94F00060E08DE10E94E20084E077
S11318E00E94F00060E08EE10E94E2008AE391E051
S11318F00E94F400089545970CF04EC060E084E126
S11319000E94E20085E00E94F00060E085E10E9410
S1131910E20085E00E94F00060E086E10E94E200BF
S113192085E00E94F00060E087E10E94E20085E02B
S11319300E94F00060E088E10E94E20085E00E94DD
S1131940F00060E089E10E94E20085E00E94F0007E
S113195060E08AE10E94E20085E00E94F00060E01D
S11319608BE10E94E20085E00E94F00060E08CE1DF
S11319700E94E20085E00E94F00060E08DE10E9498
S1131980E20085E00E94F00060E08EE10E94E20047
S11319908AE391E00E94F40008958CE00E9404011F
S11319A060E081E00E94E20086E491E00E94F4009D
S11319B062E081E00E94E20082E591E00E94F4008E
S11319C080E40E94DA00C0E0D1E000E311E08991F4
S11319D00E94DE00C017D107D1F780E80E94DA0028
S11319E087E690E00E94210F63E08AE290E00E9483
S11319F05F0062E08AE290E00E945F0063E084E2BC
S1131A0090E00E94530063E085E290E00E94700041
S1131A1062E084E290E00E94530062E085E290E09C
S1131A200E94700060E085E290E00E9470000E94D5
S1131A3046010E946501E9E6F0E080818C608083C4
S1131A40E99A808183608083E89A7894C4EED1E037
S1131A5011E080913001813089F58091EC01813071
S1131A60B9F487EC90E00197F1F700C0000062E060
S1131A7085E290E00E947D0095E39A95F1F70000DD
S1131A8062E085E290E00E9470001092300116C07E
S1131A9087EC90E00197F1F700C0000063E085E275
S1131AA090E00E947D0095E39A95F1F7000063E0D1
S1131AB085E290E00E947000109230016881798183
S1131AC08A819B812C813D814E815F810E947B10A4
S1131AD0181644F46C817D818E819F810E94D00F01
S1131AE07B0107C0688179818A819B810E94D00F24
S1131AF07B01C7010E945F0280E9E81681E0F806D5
S1131B007CF00E94650181E090E00E947F0162E028
S1131B1088E10E94E2008EE591E00E94F4004FC04B
S1131B20C7019701295C3109283C310578F40E94EA
S1131B30650182E090E00E947F0162E088E10E94FA
S1131B40E2008EE591E00E94F40039C09701255629
S1131B5031092436310578F40E94650183E090E070
S1131B600E947F0162E088E10E94E20089E691E040
S1131B700E94F40024C0C397C29778F40E946501C0
S1131B8084E090E00E947F0162E088E10E94E2002C
S1131B9084E791E00E94F40012C093E3E916F10493
S1131BA074F40E94650185E090E00E947F0162E088
S1131BB088E10E94E2008FE791E00E94F400E09047
S1131BC0EC01F12CE091EC01F0E0EE0FFF1FEE0FC1
S1131BD0FF1FEC51FE4F608171818281938121E36B
S1131BE031EB49E15EE30E948010F701EE0FFF1F25
S1131BF0EE0FFF1FEC51FE4F60837183828393834A
S1131C00E091EC01F0E0EE0FFF1FEE0FFF1FEC512F
S1131C10FE4F60817181828193810E94D00FDC012B
S1131C20CB014AE062E372E00E94ED10E091EC0126
S1131C30F0E0EE0FFF1FEE0FFF1FEC51FE4F60812F
S1131C4071818281938120E030E040E251E40E947E
S1131C50CB0F88237CF46091EC018EE00E94E200BB
S1131C6083E491E00E94F4006091EC0180E10E9421
S1131C70E2003EC0E091EC01F0E0EE0FFF1FEE0F3A
S1131C80FF1FEC51FE4F608171818281938120E0BE
S1131C9030E040E251E40E947B10882324F1E0917B
S1131CA0EC01F0E0EE0FFF1FEE0FFF1FEC51FE4FB3
S1131CB0608171818281938120E030E048EC52E4BC
S1131CC00E94CB0F88237CF46091EC018EE00E948B
S1131CD0E20084E491E00E94F4006091EC018FE062
S1131CE00E94E20005C06091EC018EE00E94E200D7
S1131CF082E392E00E94F400688179818A819B8169
S1131D0020E030E048EC52E40E94CB0F88238CF4AE
S1131D106C817D818E819F8120E030E048EC52E42B
S1131D200E94CB0F88232CF48AE891E00E944F0F85
S1131D3026C0688179818A819B8120E030E048EC6B
S1131D4052E40E94CB0F88232CF488EA91E00E948D
S1131D504F0F15C06C817D818E819F8120E030E022
S1131D6048EC52E40E94CB0F88232CF48CEB91E0D6
S1131D700E944F0F04C08FEC91E00E944F0F80919E
S1131D80EC01811103C01093EC0163CE1092EC01BD
S1131D9060CE1F920F920FB60F9211242F938F9340
S1131DA09F93EF93FF938091C0002091C6008C71A4
S1131DB0E091EF01EF5FEF719091EE01E91739F0D7
S1131DC0E093EF01F0E0EE50FE4F208301C082E08B
S1131DD09091ED01892B8093ED01FF91EF919F91FB
S1131DE08F912F910F900FBE0F901F9018951F92F7
S1131DF00F920FB60F9211248F939F93EF93FF933B
S1131E009091F1018091F001981769F0E091F0014F
S1131E10EF5FEF71E093F001F0E0EE5EFD4F808143
S1131E208093C60005C0E1ECF0E080818F7D808363
S1131E30FF91EF919F918F910F900FBE0F901F9084
S1131E4018951092F1011092F0011092EF01109286
S1131E50EE0199231CF422E02093C0009078909323
S1131E60C5008093C40088E98093C10086E0809314
S1131E70C20008952091F1012F5F2F719091F0011C
S1131E802917E1F3E22FF0E0EE5EFD4F808320930B
S1131E90F101E1ECF0E08081806280830895CF93CA
S1131EA0DF93EC018881882331F021960E943A0F58
S1131EB089918111FBCFDF91CF9108955058BB27B1
S1131EC0AA270E94760F0C9441100E94331038F018
S1131ED00E943A1020F039F49F3F19F426F40C9430
S1131EE030100EF4E095E7FB0C942A10E92F0E94C1
S1131EF0521058F3BA17620773078407950720F046
S1131F0079F4A6F50C9474100EF4E0950B2EBA2F08
S1131F10A02D0B01B90190010C01CA01A0011124EB
S1131F20FF27591B99F0593F50F4503E68F11A1697
S1131F30F040A22F232F342F4427585FF3CF469528
S1131F4037952795A795F0405395C9F77EF41F164A
S1131F50BA0B620B730B840BBAF09150A1F0FF0F14
S1131F60BB1F661F771F881FC2F70EC0BA0F621F00
S1131F70731F841F48F4879577956795B795F795F0
S1131F809E3F08F0B0CF9395880F08F09927EE0F85
S1131F909795879508950E94061008F481E00895A6
S1131FA00E94D70F6894B1110C94751008950E9483
S1131FB05A1088F09F5798F0B92F9927B751B0F06D
S1131FC0E1F0660F771F881F991F1AF0BA95C9F7B9
S1131FD014C0B13091F00E947410B1E008950C94D3
S1131FE07410672F782F8827B85F39F0B93FCCF386
S1131FF0869577956795B395D9F73EF49095809536
S1132000709561957F4F8F4F9F4F0895990F0008EA
S1132010550FAA0BE0E8FEEF16161706E807F907B6
S1132020C0F012161306E407F50798F0621B730B51
S1132030840B950B39F40A2661F0232B242B252BD2
S113204021F408950A2609F4A140A6958FEF811D75
S1132050811D089597F99F6780E870E060E0089516
S11320609FEF80EC089500240A94161617061806AC
S11320700906089500240A94121613061406050688
S11320800895092E0394000C11F4882352F0BB0F19
S113209040F4BF2B11F460FF04C06F5F7F4F8F4F7C
S11320A09F4F089557FD9058440F551F59F05F3FB7
S11320B071F04795880F97FB991F61F09F3F79F066
S11320C087950895121613061406551FF2CF4695E8
S11320D0F1DF08C0161617061806991FF1CF86956A
S11320E07105610508940895E894BB27662777274E
S11320F0CB0197F908950E94061008F48FEF089514
S11321000E9493100C9441100E94331038F00E94E6
S11321103A1020F0952311F00C942A100C943010EE
S113212011240C9475100E94521070F3959FC1F302
S1132130950F50E0551F629FF001729FBB27F00D71
S1132140B11D639FAA27F00DB11DAA1F649F6627C6
S1132150B00DA11D661F829F2227B00DA11D621F15
S1132160739FB00DA11D621F839FA00D611D221FCF
S1132170749F3327A00D611D231F849F600D211DB3
S1132180822F762F6A2F11249F5750409AF0F1F036
S113219088234AF0EE0FFF1FBB1F661F771F881F9F
S11321A091505040A9F79E3F510580F00C942A109D
S11321B00C9475105F3FE4F3983ED4F386957795BD
S11321C06795B795F795E7959F5FC1F7FE2B880F45
S11321D0911D9695879597F90895BB274A3031F458
S11321E0992322F4BDE2909581959F4F0C94F910A8
S11321F0BB27FB015527AA27880F991FAA1FA417DD
S113220010F0A41B83955051B9F7A05DAA3308F0D0
S1132210A95DA193009779F7B111B1931192CB0104
S11322200C941211DC01FC01672F71917723E1F703
S1132230329704C07C916D9370836291AE17BF078F
S10B2240C8F30895F894FFCFE0
S11322480000000000000000101010101010101002
S113225818181818181818181C1C1C1C1C1C1C1CD2
S11322681E1E1E1E1E1E1E1E1F1F1F1F1F1F1F1F7A
S11322780120202020202020202020202020202071
S1132288202020202000646973745F66726F6E7466
S11322983A00646973745F6261636B203A00414C6D
S11322A84C20434C4541522100505249484F524911
S11322B856412100212121534C4F5721212100212E
S11322C8212153544F50212121004F6273746163BB
S11322D86C657320696E2066726F6E7420616E641B
S11322E8206261636B210A004F62737461636C65D9
S11322F820696E2066726F6E74210A004F627374CF
S113230861636C6520696E206261636B210A004E0B
S11323186F206F62737461636C65206E65617262AD
S107232879210A0009
S9030000FC
