S01500007061726B696E6773656E736F722E7372656389
S11300000C9434000C94DE0E0C949E0E0C9451004F
S11300100C9451000C9451000C9451000C94510018
S11300200C9451000C941E0F0C9451000C9451002C
S11300300C9451000C9451000C9451000C945100F8
S11300400C9451000C9451000C94C30F0C94F10FB8
S11300500C9451000C9451000C9451000C945100D8
S11300600C9451000C94510011241FBECFEFD8E022
S1130070DEBFCDBF12E0A0E0B1E0ECE3F4E202C0E9
S113008005900D92A830B107D9F722E0A8E0B2E0BC
S113009001C01D92AA38B207E1F70E94D70D0C9453
S11300A01C120C940000FC01408121E030E002C0ED
S11300B0220F331F6A95E2F7242B20830895FC0155
S11300C0808121E030E002C0220F331F6A95E2F7FD
S11300D02095822380838081818128232183089530
S11300E0FC01908121E030E002C0220F331F6A95A9
S11300F0E2F72095292320830895FC01408121E023
S113010030E002C0220F331F6A95E2F7242B2083CC
S11301100895FC01408121E030E002C0220F331F2A
S11301206A95E2F7242720830895FC01808190E0FA
S113013002C0959587956A95E2F781700895299A8A
S113014085E08A95F1F7000029980895CF93C82F88
S1130150662311F0289A01C02898549A559A569A01
S1130160579A5F985E985D985C98CC230CF45F9ADC
S1130170C6FD5E9AC5FD5D9AC4FD5C9A0E949F000F
S11301805F985E985D985C98C3FD5F9AC2FD5E9A25
S1130190C1FD5D9AC0FD5C9A0E949F005C9A5D9AC5
S11301A05E9A5F9A87EB9BE00197F1F700C000002D
S11301B0CF91089560E00E94A600089561E00E9436
S11301C0A6000895611104C080580E94DA000895C1
S11301D080540E94DA00089581E00E94DA000895B4
S11301E061E00E94A6000895CF93DF93EC0121966D
S11301F0FC018081882329F00E94F00089918111FB
S1130200FBCFDF91CF910895CF93C82F209A559AB1
S1130210219A549A559A569A579A8FEF99EF0197C3
S1130220F1F700C000005D9A5C9A0E949F008FE184
S11302309EE40197F1F700C000000E949F008FEF39
S113024090E00197F1F700C000000E949F008FEF3B
S113025090E00197F1F700C000005C980E949F00B5
S11302608FEF90E00197F1F700C0000088E20E9450
S1130270DA0088E00E94DA000E94EC0086E00E9426
S1130280DA008C2F0E94DA00CF910895EF92FF924A
S11302901F93CF93DF93182F7A01EB0184E0189F0B
S11302A0C00DD11D1124688179818A819B8120E050
S11302B030E040E251E40E94C51088236CF4612FC1
S11302C08EE00E94E2008DEE91E00E94F400612F26
S11302D080E10E94E20029C0688179818A819B8142
S11302E020E030E040E251E40E9475118823CCF014
S11302F0688179818A819B8120E030E048EC52E476
S11303000E94C51088236CF4612F8EE00E94E200E5
S11303108EEE91E00E94F400612F8FE00E94E200D3
S113032004C0612F8EE00E94E200C7010E94F40025
S1130330DF91CF911F91FF90EF900895CF93DF93BA
S1130340EC010E945D0DC03981E0D8074CF062E0F9
S113035086E10E94E20081E391E00E94F40056C02D
S1130360CE01895C9109883C910568F481E090E0B4
S11303700E94770D62E086E10E94E20083E491E04E
S11303800E94F40043C0CE0185569109843691053C
S113039068F482E090E00E94770D62E087E10E94B9
S11303A0E20086E591E00E94F40030C0CE01C397DC
S11303B0C29768F483E090E00E94770D62E087E1E1
S11303C00E94E20086E691E00E94F4001FC0CE0184
S11303D00B97889768F484E090E00E94770D62E0C0
S11303E087E10E94E20084E791E00E94F4000EC0DD
S11303F02B9764F485E090E00E94770D62E087E13A
S11304000E94E20084E791E00E94F400DF91CF9122
S11304100895CF93DF93EC01688179818A819B8170
S113042020E030E048EC52E40E94C51088238CF4AC
S11304306C817D818E819F8120E030E048EC52E424
S11304400E94C51088232CF481E891E00E94491091
S113045026C0688179818A819B8120E030E048EC64
S113046052E40E94C51088232CF48FE991E00E9485
S1130470491015C06C817D818E819F8120E030E020
S113048048EC52E40E94C51088232CF483EB91E0DD
S11304900E94491004C086EC91E00E944910DF914B
S11304A0CF910895843F21E092074CF060E084E10D
S11304B00E94E2008BED91E00E94F40008959C01FB
S11304C02B5E31402A30310580F460E084E10E94E3
S11304D0E20081E00E94F00060E085E10E94E20019
S11304E08BED91E00E94F40008959C01215E31405F
S11304F02A30310580F460E084E10E94E20082E069
S11305000E94F00060E085E10E94E2008BED91E042
S11305100E94F40008959C01275D31402A30310582
S113052080F460E084E10E94E20083E00E94F00035
S113053060E085E10E94E2008BED91E00E94F4000E
S113054008959C012D5C31402A30310580F460E02F
S113055084E10E94E20084E00E94F00060E085E112
S11305600E94E2008BED91E00E94F40008959C014A
S1130570235C31402A30310580F460E084E10E943C
S1130580E20085E00E94F00060E085E10E94E20064
S11305908BED91E00E94F40008959C01295B3140A9
S11305A02A303105B8F460E084E10E94E20085E07D
S11305B00E94F00060E085E10E94E20082E00E9477
S11305C0F00060E086E10E94E2008CED91E00E9480
S11305D0F40008959C012F5A31402A303105B8F4B3
S11305E060E084E10E94E20085E00E94F00060E0A7
S11305F085E10E94E20083E00E94F00060E086E171
S11306000E94E2008CED91E00E94F40008959C01A8
S1130610255A31402A303105B8F460E084E10E9463
S1130620E20085E00E94F00060E085E10E94E200C3
S113063084E00E94F00060E086E10E94E2008CED1C
S113064091E00E94F40008959C012B5931402A3016
S11306503105B8F460E084E10E94E20085E00E9484
S1130660F00060E085E10E94E20085E00E94F00075
S113067060E086E10E94E2008CED91E00E94F400CB
S113068008959C01215931402A303105F0F460E08D
S113069084E10E94E20085E00E94F00060E085E1D0
S11306A00E94E20085E00E94F00060E086E10E9482
S11306B0E20081E00E94F00060E087E10E94E20035
S11306C08DED91E00E94F40008959C01275831407B
S11306D02A303105F0F460E084E10E94E20085E014
S11306E00E94F00060E085E10E94E20085E00E9443
S11306F0F00060E086E10E94E20082E00E94F000E7
S113070060E087E10E94E2008DED91E00E94F40038
S113071008959C012C5731402B303105F0F460E0F2
S113072084E10E94E20085E00E94F00060E085E13F
S11307300E94E20085E00E94F00060E086E10E94F1
S1130740E20083E00E94F00060E087E10E94E200A2
S11307508DED91E00E94F40008959C0123573140EF
S11307602A303105F0F460E084E10E94E20085E083
S11307700E94F00060E085E10E94E20085E00E94B2
S1130780F00060E086E10E94E20084E00E94F00054
S113079060E087E10E94E2008DED91E00E94F400A8
S11307A008959C01295631402A303105F0F460E067
S11307B084E10E94E20085E00E94F00060E085E1AF
S11307C00E94E20085E00E94F00060E086E10E9461
S11307D0E20085E00E94F00060E087E10E94E20010
S11307E08DED91E00E94F40008959C012F55314055
S11307F02A30310528F560E084E10E94E20085E0BA
S11308000E94F00060E085E10E94E20085E00E9421
S1130810F00060E086E10E94E20085E00E94F000C2
S113082060E087E10E94E20081E00E94F00060E065
S113083088E10E94E2008EED91E00E94F4000895A8
S11308409C01255531402A30310528F560E084E1CA
S11308500E94E20085E00E94F00060E085E10E94D1
S1130860E20085E00E94F00060E086E10E94E20080
S113087085E00E94F00060E087E10E94E20082E0EF
S11308800E94F00060E088E10E94E2008EED91E0B9
S11308900E94F40008959C012B5431402A30310504
S11308A028F560E084E10E94E20085E00E94F00007
S11308B060E085E10E94E20085E00E94F00060E0D3
S11308C086E10E94E20085E00E94F00060E087E19A
S11308D00E94E20083E00E94F00060E088E10E9450
S11308E0E2008EED91E00E94F40008959C012154F1
S11308F031402A30310528F560E084E10E94E200AD
S113090085E00E94F00060E085E10E94E20085E05D
S11309100E94F00060E086E10E94E20085E00E940F
S1130920F00060E087E10E94E20084E00E94F000B1
S113093060E088E10E94E2008EED91E00E94F40004
S113094008959C01275331402A30310528F560E091
S113095084E10E94E20085E00E94F00060E085E10D
S11309600E94E20085E00E94F00060E086E10E94BF
S1130970E20085E00E94F00060E087E10E94E2006E
S113098085E00E94F00060E088E10E94E2008EEDC4
S113099091E00E94F40008959C012D5231402A30C8
S11309A0310560F560E084E10E94E20085E00E9488
S11309B0F00060E085E10E94E20085E00E94F00022
S11309C060E086E10E94E20085E00E94F00060E0C1
S11309D087E10E94E20085E00E94F00060E088E187
S11309E00E94E20081E00E94F00060E089E10E9440
S11309F0E2008FED91E00E94F40008959C012352DF
S1130A0031402A30310560F560E084E10E94E20063
S1130A1085E00E94F00060E085E10E94E20085E04C
S1130A200E94F00060E086E10E94E20085E00E94FE
S1130A30F00060E087E10E94E20085E00E94F0009F
S1130A4060E088E10E94E20082E00E94F00060E041
S1130A5089E10E94E2008FED91E00E94F400089584
S1130A609C01295131402A30310560F560E084E170
S1130A700E94E20085E00E94F00060E085E10E94AF
S1130A80E20085E00E94F00060E086E10E94E2005E
S1130A9085E00E94F00060E087E10E94E20085E0CA
S1130AA00E94F00060E088E10E94E20083E00E947E
S1130AB0F00060E089E10E94E2008FED91E00E9485
S1130AC0F40008959C012F5031402A30310560F51F
S1130AD060E084E10E94E20085E00E94F00060E0B2
S1130AE085E10E94E20085E00E94F00060E086E17A
S1130AF00E94E20085E00E94F00060E087E10E942D
S1130B00E20085E00E94F00060E088E10E94E200DB
S1130B1084E00E94F00060E089E10E94E2008FED31
S1130B2091E00E94F40008959C01255031402A3040
S1130B30310560F560E084E10E94E20085E00E94F6
S1130B40F00060E085E10E94E20085E00E94F00090
S1130B5060E086E10E94E20085E00E94F00060E02F
S1130B6087E10E94E20085E00E94F00060E088E1F5
S1130B700E94E20085E00E94F00060E089E10E94AA
S1130B80E2008FED91E00E94F40008959C012B5F38
S1130B9031092A30310598F560E084E10E94E200D1
S1130BA085E00E94F00060E085E10E94E20085E0BB
S1130BB00E94F00060E086E10E94E20085E00E946D
S1130BC0F00060E087E10E94E20085E00E94F0000E
S1130BD060E088E10E94E20085E00E94F00060E0AD
S1130BE089E10E94E20081E00E94F00060E08AE175
S1130BF00E94E20080EE91E00E94F40008959C01BE
S1130C00215F31092A30310598F560E084E10E94C2
S1130C10E20085E00E94F00060E085E10E94E200CD
S1130C2085E00E94F00060E086E10E94E20085E039
S1130C300E94F00060E087E10E94E20085E00E94EB
S1130C40F00060E088E10E94E20085E00E94F0008C
S1130C5060E089E10E94E20082E00E94F00060E02E
S1130C608AE10E94E20080EE91E00E94F40008957F
S1130C709C01275E31092A30310598F560E084E152
S1130C800E94E20085E00E94F00060E085E10E949D
S1130C90E20085E00E94F00060E086E10E94E2004C
S1130CA085E00E94F00060E087E10E94E20085E0B8
S1130CB00E94F00060E088E10E94E20085E00E946A
S1130CC0F00060E089E10E94E20083E00E94F0000D
S1130CD060E08AE10E94E20080EE91E00E94F4006C
S1130CE008959C012D5D31092A30310598F560E0A5
S1130CF084E10E94E20085E00E94F00060E085E16A
S1130D000E94E20085E00E94F00060E086E10E941B
S1130D10E20085E00E94F00060E087E10E94E200CA
S1130D2085E00E94F00060E088E10E94E20085E036
S1130D300E94F00060E089E10E94E20084E00E94E9
S1130D40F00060E08AE10E94E20080EE91E00E94FF
S1130D50F40008959C01235D31092A30310598F58A
S1130D6060E084E10E94E20085E00E94F00060E01F
S1130D7085E10E94E20085E00E94F00060E086E1E7
S1130D800E94E20085E00E94F00060E087E10E949A
S1130D90E20085E00E94F00060E088E10E94E20049
S1130DA085E00E94F00060E089E10E94E20085E0B5
S1130DB00E94F00060E08AE10E94E20080EE91E08F
S1130DC00E94F40008959C01295C31092A30310500
S1130DD0D0F560E084E10E94E20085E00E94F0002A
S1130DE060E085E10E94E20085E00E94F00060E09E
S1130DF086E10E94E20085E00E94F00060E087E165
S1130E000E94E20085E00E94F00060E088E10E9418
S1130E10E20085E00E94F00060E089E10E94E200C7
S1130E2085E00E94F00060E08AE10E94E20081E037
S1130E300E94F00060E08BE10E94E20081EE91E00C
S1130E400E94F40008959C012F5B31092A3031057A
S1130E50D0F560E084E10E94E20085E00E94F000A9
S1130E6060E085E10E94E20085E00E94F00060E01D
S1130E7086E10E94E20085E00E94F00060E087E1E4
S1130E800E94E20085E00E94F00060E088E10E9498
S1130E90E20085E00E94F00060E089E10E94E20047
S1130EA085E00E94F00060E08AE10E94E20082E0B6
S1130EB00E94F00060E08BE10E94E20081EE91E08C
S1130EC00E94F40008959C01255B31092A30310504
S1130ED0D0F560E084E10E94E20085E00E94F00029
S1130EE060E085E10E94E20085E00E94F00060E09D
S1130EF086E10E94E20085E00E94F00060E087E164
S1130F000E94E20085E00E94F00060E088E10E9417
S1130F10E20085E00E94F00060E089E10E94E200C6
S1130F2085E00E94F00060E08AE10E94E20083E034
S1130F300E94F00060E08BE10E94E20081EE91E00B
S1130F400E94F40008959C012B5A31092A3031057E
S1130F50D0F560E084E10E94E20085E00E94F000A8
S1130F6060E085E10E94E20085E00E94F00060E01C
S1130F7086E10E94E20085E00E94F00060E087E1E3
S1130F800E94E20085E00E94F00060E088E10E9497
S1130F90E20085E00E94F00060E089E10E94E20046
S1130FA085E00E94F00060E08AE10E94E20084E0B3
S1130FB00E94F00060E08BE10E94E20081EE91E08B
S1130FC00E94F40008959C01215A31092A30310508
S1130FD0D0F560E084E10E94E20085E00E94F00028
S1130FE060E085E10E94E20085E00E94F00060E09C
S1130FF086E10E94E20085E00E94F00060E087E163
S11310000E94E20085E00E94F00060E088E10E9416
S1131010E20085E00E94F00060E089E10E94E200C5
S113102085E00E94F00060E08AE10E94E20085E031
S11310300E94F00060E08BE10E94E20081EE91E00A
S11310400E94F40008959C01275931092A30310582
S113105008F041C060E084E10E94E20085E00E9463
S1131060F00060E085E10E94E20085E00E94F0006B
S113107060E086E10E94E20085E00E94F00060E00A
S113108087E10E94E20085E00E94F00060E088E1D0
S11310900E94E20085E00E94F00060E089E10E9485
S11310A0E20085E00E94F00060E08AE10E94E20034
S11310B085E00E94F00060E08BE10E94E20081E0A4
S11310C00E94F00060E08CE10E94E20082EE91E078
S11310D00E94F40008959C012D5831092A303105ED
S11310E008F041C060E084E10E94E20085E00E94D3
S11310F0F00060E085E10E94E20085E00E94F000DB
S113110060E086E10E94E20085E00E94F00060E079
S113111087E10E94E20085E00E94F00060E088E13F
S11311200E94E20085E00E94F00060E089E10E94F4
S1131130E20085E00E94F00060E08AE10E94E200A3
S113114085E00E94F00060E08BE10E94E20082E012
S11311500E94F00060E08CE10E94E20082EE91E0E7
S11311600E94F40008959C01235831092A30310566
S113117008F041C060E084E10E94E20085E00E9442
S1131180F00060E085E10E94E20085E00E94F0004A
S113119060E086E10E94E20085E00E94F00060E0E9
S11311A087E10E94E20085E00E94F00060E088E1AF
S11311B00E94E20085E00E94F00060E089E10E9464
S11311C0E20085E00E94F00060E08AE10E94E20013
S11311D085E00E94F00060E08BE10E94E20083E081
S11311E00E94F00060E08CE10E94E20082EE91E057
S11311F00E94F40008959C01295731092A303105D1
S113120008F041C060E084E10E94E20085E00E94B1
S1131210F00060E085E10E94E20085E00E94F000B9
S113122060E086E10E94E20085E00E94F00060E058
S113123087E10E94E20085E00E94F00060E088E11E
S11312400E94E20085E00E94F00060E089E10E94D3
S1131250E20085E00E94F00060E08AE10E94E20082
S113126085E00E94F00060E08BE10E94E20084E0EF
S11312700E94F00060E08CE10E94E20082EE91E0C6
S11312800E94F40008959C012F5631092A3031053B
S113129008F041C060E084E10E94E20085E00E9421
S11312A0F00060E085E10E94E20085E00E94F00029
S11312B060E086E10E94E20085E00E94F00060E0C8
S11312C087E10E94E20085E00E94F00060E088E18E
S11312D00E94E20085E00E94F00060E089E10E9443
S11312E0E20085E00E94F00060E08AE10E94E200F2
S11312F085E00E94F00060E08BE10E94E20085E05E
S11313000E94F00060E08CE10E94E20082EE91E035
S11313100E94F40008959C01255631092A303105B4
S113132008F048C060E084E10E94E20085E00E9489
S1131330F00060E085E10E94E20085E00E94F00098
S113134060E086E10E94E20085E00E94F00060E037
S113135087E10E94E20085E00E94F00060E088E1FD
S11313600E94E20085E00E94F00060E089E10E94B2
S1131370E20085E00E94F00060E08AE10E94E20061
S113138085E00E94F00060E08BE10E94E20085E0CD
S11313900E94F00060E08CE10E94E20081E00E9483
S11313A0F00060E08DE10E94E20083EE91E00E9493
S11313B0F40008959C012B5531092A30310508F0B9
S11313C048C060E084E10E94E20085E00E94F000F1
S11313D060E085E10E94E20085E00E94F00060E0A8
S11313E086E10E94E20085E00E94F00060E087E16F
S11313F00E94E20085E00E94F00060E088E10E9423
S1131400E20085E00E94F00060E089E10E94E200D1
S113141085E00E94F00060E08AE10E94E20085E03D
S11314200E94F00060E08BE10E94E20085E00E94EF
S1131430F00060E08CE10E94E20082E00E94F00093
S113144060E08DE10E94E20083EE91E00E94F400EE
S113145008959C01215531092A30310508F048C00E
S113146060E084E10E94E20085E00E94F00060E018
S113147085E10E94E20085E00E94F00060E086E1E0
S11314800E94E20085E00E94F00060E087E10E9493
S1131490E20085E00E94F00060E088E10E94E20042
S11314A085E00E94F00060E089E10E94E20085E0AE
S11314B00E94F00060E08AE10E94E20085E00E9460
S11314C0F00060E08BE10E94E20085E00E94F00001
S11314D060E08CE10E94E20083E00E94F00060E0A2
S11314E08DE10E94E20083EE91E00E94F4000895F1
S11314F09C01275431092A30310508F048C060E0C6
S113150084E10E94E20085E00E94F00060E085E151
S11315100E94E20085E00E94F00060E086E10E9403
S1131520E20085E00E94F00060E087E10E94E200B2
S113153085E00E94F00060E088E10E94E20085E01E
S11315400E94F00060E089E10E94E20085E00E94D0
S1131550F00060E08AE10E94E20085E00E94F00071
S113156060E08BE10E94E20085E00E94F00060E010
S11315708CE10E94E20084E00E94F00060E08DE1D2
S11315800E94E20083EE91E00E94F40008959C0121
S11315902D5331092A30310508F048C060E084E158
S11315A00E94E20085E00E94F00060E085E10E9474
S11315B0E20085E00E94F00060E086E10E94E20023
S11315C085E00E94F00060E087E10E94E20085E08F
S11315D00E94F00060E088E10E94E20085E00E9441
S11315E0F00060E089E10E94E20085E00E94F000E2
S11315F060E08AE10E94E20085E00E94F00060E081
S11316008BE10E94E20085E00E94F00060E08CE142
S11316100E94E20085E00E94F00060E08DE10E94FB
S1131620E20083EE91E00E94F40008959C012353AC
S113163031092A30310508F04FC060E084E10E948E
S1131640E20085E00E94F00060E085E10E94E20093
S113165085E00E94F00060E086E10E94E20085E0FF
S11316600E94F00060E087E10E94E20085E00E94B1
S1131670F00060E088E10E94E20085E00E94F00052
S113168060E089E10E94E20085E00E94F00060E0F1
S11316908AE10E94E20085E00E94F00060E08BE1B4
S11316A00E94E20085E00E94F00060E08CE10E946C
S11316B0E20085E00E94F00060E08DE10E94E2001B
S11316C081E00E94F00060E08EE10E94E20084EE7E
S11316D091E00E94F40008959C01295231092A30B6
S11316E0310508F04FC060E084E10E94E20085E02B
S11316F00E94F00060E085E10E94E20085E00E9423
S1131700F00060E086E10E94E20085E00E94F000C3
S113171060E087E10E94E20085E00E94F00060E062
S113172088E10E94E20085E00E94F00060E089E127
S11317300E94E20085E00E94F00060E08AE10E94DD
S1131740E20085E00E94F00060E08BE10E94E2008C
S113175085E00E94F00060E08CE10E94E20085E0F8
S11317600E94F00060E08DE10E94E20082E00E94AD
S1131770F00060E08EE10E94E20084EE91E00E94BD
S1131780F40008959C012F5131092A30310508F0E5
S11317904FC060E084E10E94E20085E00E94F00016
S11317A060E085E10E94E20085E00E94F00060E0D4
S11317B086E10E94E20085E00E94F00060E087E19B
S11317C00E94E20085E00E94F00060E088E10E944F
S11317D0E20085E00E94F00060E089E10E94E200FE
S11317E085E00E94F00060E08AE10E94E20085E06A
S11317F00E94F00060E08BE10E94E20085E00E941C
S1131800F00060E08CE10E94E20085E00E94F000BC
S113181060E08DE10E94E20083E00E94F00060E05D
S11318208EE10E94E20084EE91E00E94F4000895AB
S11318309C01255131092A30310508F04FC060E080
S113184084E10E94E20085E00E94F00060E085E10E
S11318500E94E20085E00E94F00060E086E10E94C0
S1131860E20085E00E94F00060E087E10E94E2006F
S113187085E00E94F00060E088E10E94E20085E0DB
S11318800E94F00060E089E10E94E20085E00E948D
S1131890F00060E08AE10E94E20085E00E94F0002E
S11318A060E08BE10E94E20085E00E94F00060E0CD
S11318B08CE10E94E20085E00E94F00060E08DE18E
S11318C00E94E20084E00E94F00060E08EE10E9449
S11318D0E20084EE91E00E94F400089545970CF034
S11318E04EC060E084E10E94E20085E00E94F000C6
S11318F060E085E10E94E20085E00E94F00060E083
S113190086E10E94E20085E00E94F00060E087E149
S11319100E94E20085E00E94F00060E088E10E94FD
S1131920E20085E00E94F00060E089E10E94E200AC
S113193085E00E94F00060E08AE10E94E20085E018
S11319400E94F00060E08BE10E94E20085E00E94CA
S1131950F00060E08CE10E94E20085E00E94F0006B
S113196060E08DE10E94E20085E00E94F00060E00A
S11319708EE10E94E20084EE91E00E94F40008955A
S113198061E087E290E00E94530062E087E290E029
S11319900E94530063E087E290E00E94530064E0F9
S11319A087E290E00E94530065E087E290E00E94A5
S11319B0530060E087E290E00E94530064E084E218
S11319C090E00E94530063E08AE290E00E945F008E
S11319D062E08AE290E00E945F0063E084E290E0CB
S11319E00E94530062E084E290E00E94530063E0AE
S11319F085E290E00E94700062E085E290E00E943F
S1131A00700060E085E290E00E94700064E084E28F
S1131A1090E00E94530064E085E290E00E94700030
S1131A200895EF92FF920F931F93CF93DF93CDB757
S1131A30DEB7E0970FB6F894DEBF0FBECDBF80E3EC
S1131A40E1E0F1E0DE01119601900D928A95E1F753
S1131A508CE00E94040160E081E00E94E20080EFDB
S1131A6091E00E94F40062E081E00E94E2008CEFC9
S1131A7091E00E94F40080E40E94DA008E010F5F7E
S1131A801F4F7E0181E3E80EF11CF80181918F0163
S1131A900E94DE000E151F05C1F780E80E94DA00DF
S1131AA0E0960FB6F894DEBF0FBECDBFDF91CF91A5
S1131AB01F910F91FF90EF90089561E088E290E00C
S1131AC00E94700062E088E290E00E94700063E08F
S1131AD088E290E00E94700064E088E290E00E9456
S1131AE0700065E088E290E00E9470000895833001
S1131AF09105F1F034F48130910549F0029769F0D1
S1131B0008958430910521F10597B9F1089561E0B4
S1131B1088E290E00E948900089561E088E290E004
S1131B200E94890062E088E290E00E9489000895A2
S1131B3061E088E290E00E94890062E088E290E03F
S1131B400E94890063E088E290E00E948900089581
S1131B5061E088E290E00E94890062E088E290E01F
S1131B600E94890063E088E290E00E94890064E0BA
S1131B7088E290E00E948900089561E088E290E0A4
S1131B800E94890062E088E290E00E94890063E09C
S1131B9088E290E00E94890064E088E290E00E947C
S1131BA0890065E088E290E00E94890008950E941F
S1131BB0110D87E690E00E941B100E94C00C0E9449
S1131BC05D0DE1EBF0E0808187608083E0E7F0E089
S1131BD0808181608083E9E6F0E080818C6080838D
S1131BE0E99A808183608083E89A78940AE012E01D
S1131BF0FF24F39464E085E290E00E9470008091F9
S1131C000001813069F5809112028130A9F485EDDB
S1131C108A95F1F7000062E085E290E00E947D0081
S1131C20E5E3EA95F1F7000062E085E290E00E94C6
S1131C3070001092000114C0F5EDFA95F1F7000060
S1131C4063E085E290E00E947D0085E38A95F1F7E8
S1131C50000063E085E290E00E94700010920001B1
S1131C60F80160817181828193812481358146816B
S1131C7057810E94751118164CF4F801648175811E
S1131C80868197810E94CA10EB0108C0F801608127
S1131C907181828193810E94CA10EB01CE010E945E
S1131CA05202CE010E949E01C0911202D0E0E09146
S1131CB01202F0E0EE0FFF1FEE0FFF1FE65FFD4F75
S1131CC060817181828193812EEB3FE94AE15EE379
S1131CD00E947A11CC0FDD1FCC0FDD1FC65FDD4FD4
S1131CE0688379838A839B83E0911202F0E0EE0F8C
S1131CF0FF1FEE0FFF1FE65FFD4F60817181828140
S1131D0093810E94CA10DC01CB014AE068E572E0CD
S1131D100E94E7118091120248E552E0B8010E9446
S1131D204601C8010E94090280911202811103C078
S1131D30F09212025FCF109212025CCF1F920F92A8
S1131D400FB60F9211242F933F934F935F936F938A
S1131D507F938F939F93AF93BF93CF93DF93EF932F
S1131D60FF93CAE0D2E0688179818A819B8120E077
S1131D7030E040E85FE30E945910688379838A83E6
S1131D809B8363E089E290E00E9495008111EBCF90
S1131D9081E080930001FF91EF91DF91CF91BF919A
S1131DA0AF919F918F917F916F915F914F913F91EF
S1131DB02F910F900FBE0F901F9018951F920F92A6
S1131DC00FB60F9211242F933F934F935F936F930A
S1131DD07F938F939F93AF93BF93CF93DF93EF93AF
S1131DE0FF93CAE0D2E06C817D818E819F8120E0E7
S1131DF030E040E85FE30E9459106C837D838E835A
S1131E009F8362E089E290E00E9495008111EBCF0C
S1131E1081E080930001FF91EF91DF91CF91BF9119
S1131E20AF919F918F917F916F915F914F913F916E
S1131E302F910F900FBE0F901F9018951F920F9225
S1131E400FB60F9211242F933F934F935F936F9389
S1131E507F938F939F93AF93BF93CF93DF93EF932E
S1131E60FF938091080290910902019690930902D0
S1131E70809308028091080290910902059709F065
S1131E806FC0EAE0F2E060817181828193812481F4
S1131E903581468157810E947511181664F460914A
S1131EA00E0270910F0280911002909111020E9413
S1131EB0CA10EB010BC060910A0270910B02809171
S1131EC00C0290910D020E94CA10EB01C536D10597
S1131ED02CF464E085E290E00E9489009E01CE012A
S1131EE08C549109499730F4E1EBF0E080818760EC
S1131EF0808332C0CE01C397499748F4E1EBF0E008
S1131F0080818E7F808380818660808325C0CE011E
S1131F104A97499748F4E1EBF0E080818D7F808314
S1131F2080818560808318C02B5031092F303105A2
S1131F3048F4E1EBF0E080818C7F808380818460D1
S1131F4080830AC02B9744F4E1EBF0E080818B7F1F
S1131F50808380818360808310920902109208023A
S1131F60FF91EF91DF91CF91BF91AF919F918F91AD
S1131F707F916F915F914F913F912F910F900FBE81
S1131F800F901F9018951F920F920FB60F92112465
S1131F902F938F939F93EF93FF938091C000209191
S1131FA0C6008C71E0911502EF5FEF7190911402FD
S1131FB0E91739F0E0931502F0E0E85EFD4F208365
S1131FC001C082E090911302892B80931302FF9148
S1131FD0EF919F918F912F910F900FBE0F901F90B3
S1131FE018951F920F920FB60F9211248F939F93FF
S1131FF0EF93FF939091170280911602981769F05E
S1132000E0911602EF5FEF71E0931602F0E0E85CF6
S1132010FD4F80818093C60005C0E1ECF0E0808133
S11320208F7D8083FF91EF919F918F910F900FBED1
S11320300F901F901895109217021092160210928A
S113204015021092140299231CF422E02093C0007C
S113205090789093C5008093C40088E98093C10070
S113206086E08093C2000895209117022F5F2F719C
S1132070909116022917E1F3E22FF0E0E85CFD4F9E
S1132080808320931702E1ECF0E0808180628083FA
S11320900895CF93DF93EC018881882331F0219652
S11320A00E94341089918111FBCFDF91CF91089563
S11320B05058BB27AA270E9470100C943B110E9411
S11320C02D1138F00E94341120F039F49F3F19F497
S11320D026F40C942A110EF4E095E7FB0C942411D9
S11320E0E92F0E944C1158F3BA176207730784074B
S11320F0950720F079F4A6F50C946E110EF4E09592
S11321000B2EBA2FA02D0B01B90190010C01CA01AD
S1132110A0011124FF27591B99F0593F50F4503E58
S113212068F11A16F040A22F232F342F4427585F4A
S1132130F3CF469537952795A795F0405395C9F762
S11321407EF41F16BA0B620B730B840BBAF091501A
S1132150A1F0FF0FBB1F661F771F881FC2F70EC0B9
S1132160BA0F621F731F841F48F48795779567958C
S1132170B795F7959E3F08F0B0CF9395880F08F078
S11321809927EE0F9795879508950E94001108F4FA
S113219081E008950E94D1106894B1110C946F11DC
S11321A008950E94541188F09F5798F0B92F9927E9
S11321B0B751B0F0E1F0660F771F881F991F1AF02E
S11321C0BA95C9F714C0B13091F00E946E11B1E014
S11321D008950C946E11672F782F8827B85F39F013
S11321E0B93FCCF3869577956795B395D9F73EF4C7
S11321F090958095709561957F4F8F4F9F4F08956F
S1132200990F0008550FAA0BE0E8FEEF1616170603
S1132210E807F907C0F012161306E407F50798F06B
S1132220621B730B840B950B39F40A2661F0232B84
S1132230242B252B21F408950A2609F4A140A69500
S11322408FEF811D811D089597F99F6780E870E0E5
S113225060E008959FEF80EC089500240A94161618
S1132260170618060906089500240A941216130680
S1132270140605060895092E0394000C11F488230E
S113228052F0BB0F40F4BF2B11F460FF04C06F5F2A
S11322907F4F8F4F9F4F089557FD9058440F551F00
S11322A059F05F3F71F04795880F97FB991F61F0D4
S11322B09F3F79F087950895121613061406551F4B
S11322C0F2CF4695F1DF08C0161617061806991FB7
S11322D0F1CF86957105610508940895E894BB27AC
S11322E066277727CB0197F908950E94001108F417
S11322F08FEF08950E948D110C943B110E942D11B3
S113230038F00E94341120F0952311F00C9424111C
S11323100C942A1111240C946F110E944C1170F327
S1132320959FC1F3950F50E0551F629FF001729F76
S1132330BB27F00DB11D639FAA27F00DB11DAA1F85
S1132340649F6627B00DA11D661F829F2227B00DD2
S1132350A11D621F739FB00DA11D621F839FA00D5D
S1132360611D221F749F3327A00D611D231F849FAD
S1132370600D211D822F762F6A2F11249F57504004
S11323809AF0F1F088234AF0EE0FFF1FBB1F661F7F
S1132390771F881F91505040A9F79E3F510580F048
S11323A00C9424110C946F115F3FE4F3983ED4F322
S11323B0869577956795B795F795E7959F5FC1F7EC
S11323C0FE2B880F911D9695879597F90895BB2745
S11323D04A3031F4992322F4BDE2909581959F4FC0
S11323E00C94F311BB27FB015527AA27880F991FCB
S11323F0AA1FA41710F0A41B83955051B9F7A05D30
S1132400AA3308F0A95DA193009779F7B111B193AC
S11324101192CB010C940C12DC01FC01672F719119
S11324207723E1F7329704C07C916D9370836291B6
S10F2430AE17BF07C8F30895F894FFCF5F
S113243C010000000000000000101010101010101B
S113244C1018181818181818181C1C1C1C1C1C1CE8
S113245C1C1E1E1E1E1E1E1E1E1F1F1F1F1F1F1F87
S113246C1F4F555453494445204F462052414E4723
S113247C45210020202020414C4C20434C45415206
S113248C212020202000202020505249484F52491E
S113249C564121202000202020202121534C4F572D
S11324AC21212000202020212153544F5021212070
S11324BC004F62737461636C657320696E2066727D
S11324CC6F6E7420616E64206261636B210A004F2D
S11324DC62737461636C6520696E2066726F6E74CE
S11324EC210A004F62737461636C6520696E20620B
S11324FC61636B210A004E6F206F62737461636CAD
S113250C65206E6561726279210A002020202020EA
S113251C20202020202020202020202020202000CB
S113252C646973745F66726F6E743A006469737471
S10B253C5F6261636B203A0049
S9030000FC
