S01500007061726B696E6773656E736F722E7372656389
S11300000C9434000C94DA0E0C949A0E0C94510057
S11300100C9451000C9451000C9451000C94510018
S11300200C9451000C941A0F0C9451000C94510030
S11300300C9451000C9451000C9451000C945100F8
S11300400C9451000C9451000C94BA0F0C94E80FCA
S11300500C9451000C9451000C9451000C945100D8
S11300600C9451000C94510011241FBECFEFD8E022
S1130070DEBFCDBF11E0A0E0B1E0EAE2F4E202C0ED
S113008005900D92A43EB107D9F722E0A4EEB1E0A9
S113009001C01D92A436B207E1F70E94CF0D0C9463
S11300A013120C940000FC01408121E030E002C0F6
S11300B0220F331F6A95E2F7242B20830895FC0155
S11300C0808121E030E002C0220F331F6A95E2F7FD
S11300D02095822380838081818128232183089530
S11300E0FC01908121E030E002C0220F331F6A95A9
S11300F0E2F72095292320830895FC01408121E023
S113010030E002C0220F331F6A95E2F7242B2083CC
S11301100895FC01408121E030E002C0220F331F2A
S11301206A95E2F7242720830895FC01808190E0FA
S113013002C0959587956A95E2F781700895299A8A
S113014085E08A95F1F7000029980895CF93C82F88
S1130150662311F0289A01C02898549A559A569A01
S1130160579A5F985E985D985C98CC230CF45F9ADC
S1130170C6FD5E9AC5FD5D9AC4FD5C9A0E949F000F
S11301805F985E985D985C98C3FD5F9AC2FD5E9A25
S1130190C1FD5D9AC0FD5C9A0E949F005C9A5D9AC5
S11301A05E9A5F9A87EB9BE00197F1F700C000002D
S11301B0CF91089560E00E94A600089561E00E9436
S11301C0A6000895611104C080580E94DA000895C1
S11301D080540E94DA00089581E00E94DA000895B4
S11301E061E00E94A6000895CF93DF93EC0121966D
S11301F0FC018081882329F00E94F00089918111FB
S1130200FBCFDF91CF910895CF93C82F209A559AB1
S1130210219A549A559A569A579A8FEF99EF0197C3
S1130220F1F700C000005D9A5C9A0E949F008FE184
S11302309EE40197F1F700C000000E949F008FEF39
S113024090E00197F1F700C000000E949F008FEF3B
S113025090E00197F1F700C000005C980E949F00B5
S11302608FEF90E00197F1F700C0000088E20E9450
S1130270DA0088E00E94DA000E94EC0086E00E9426
S1130280DA008C2F0E94DA00CF910895EF92FF924A
S11302901F93CF93DF93182F7A01EB0184E0189F0B
S11302A0C00DD11D1124688179818A819B8120E050
S11302B030E040E251E40E94BC1088236CF4612FCA
S11302C08EE00E94E20089EC91E00E94F400612F2C
S11302D080E10E94E20029C0688179818A819B8142
S11302E020E030E040E251E40E946C118823CCF01D
S11302F0688179818A819B8120E030E048EC52E476
S11303000E94BC1088236CF4612F8EE00E94E200EE
S11303108AEC91E00E94F400612F8FE00E94E200D9
S113032004C0612F8EE00E94E200C7010E94F40025
S1130330DF91CF911F91FF90EF900895803921E0D4
S113034092077CF00E94550D81E090E00E946F0DB1
S113035062E088E10E94E20081E391E00E94F400FF
S113036008959C01295C3109283C310578F40E94E8
S1130370550D82E090E00E946F0D62E088E10E94DA
S1130380E20081E391E00E94F40008959C01255667
S113039031092436310578F40E94550D83E090E04C
S11303A00E946F0D62E088E10E94E2008CE391E01C
S11303B00E94F40008959C0123533109223331052E
S11303C078F40E94550D84E090E00E946F0D62E085
S11303D088E10E94E20087E491E00E94F40008951D
S11303E0C39774F40E94550D85E090E00E946F0D50
S11303F062E088E10E94E20082E591E00E94F4005C
S11304000895CF93DF93EC01688179818A819B8180
S113041020E030E048EC52E40E94BC1088238CF4C5
S11304206C817D818E819F8120E030E048EC52E434
S11304300E94BC1088232CF48DE591E00E944010AA
S113044026C0688179818A819B8120E030E048EC74
S113045052E40E94BC1088232CF48BE791E00E94A4
S1130460401015C06C817D818E819F8120E030E039
S113047048EC52E40E94BC1088232CF48FE891E0ED
S11304800E94401004C082EA91E00E944010DF9173
S1130490CF910895843F21E092074CF060E084E11D
S11304A00E94E20087EB91E00E94F40008959C0111
S11304B02B5E31402A30310580F460E084E10E94F3
S11304C0E20081E00E94F00060E085E10E94E20029
S11304D087EB91E00E94F40008959C01215E314075
S11304E02A30310580F460E084E10E94E20082E079
S11304F00E94F00060E085E10E94E20087EB91E059
S11305000E94F40008959C01275D31402A30310592
S113051080F460E084E10E94E20083E00E94F00045
S113052060E085E10E94E20087EB91E00E94F40024
S113053008959C012D5C31402A30310580F460E03F
S113054084E10E94E20084E00E94F00060E085E122
S11305500E94E20087EB91E00E94F40008959C0160
S1130560235C31402A30310580F460E084E10E944C
S1130570E20085E00E94F00060E085E10E94E20074
S113058087EB91E00E94F40008959C01295B3140BF
S11305902A303105B8F460E084E10E94E20085E08D
S11305A00E94F00060E085E10E94E20082E00E9487
S11305B0F00060E086E10E94E20088EB91E00E9496
S11305C0F40008959C012F5A31402A303105B8F4C3
S11305D060E084E10E94E20085E00E94F00060E0B7
S11305E085E10E94E20083E00E94F00060E086E181
S11305F00E94E20088EB91E00E94F40008959C01BF
S1130600255A31402A303105B8F460E084E10E9473
S1130610E20085E00E94F00060E085E10E94E200D3
S113062084E00E94F00060E086E10E94E20088EB32
S113063091E00E94F40008959C012B5931402A3026
S11306403105B8F460E084E10E94E20085E00E9494
S1130650F00060E085E10E94E20085E00E94F00085
S113066060E086E10E94E20088EB91E00E94F400E1
S113067008959C01215931402A303105F0F460E09D
S113068084E10E94E20085E00E94F00060E085E1E0
S11306900E94E20085E00E94F00060E086E10E9492
S11306A0E20081E00E94F00060E087E10E94E20045
S11306B089EB91E00E94F40008959C012758314091
S11306C02A303105F0F460E084E10E94E20085E024
S11306D00E94F00060E085E10E94E20085E00E9453
S11306E0F00060E086E10E94E20082E00E94F000F7
S11306F060E087E10E94E20089EB91E00E94F4004F
S113070008959C012C5731402B303105F0F460E002
S113071084E10E94E20085E00E94F00060E085E14F
S11307200E94E20085E00E94F00060E086E10E9401
S1130730E20083E00E94F00060E087E10E94E200B2
S113074089EB91E00E94F40008959C012357314005
S11307502A303105F0F460E084E10E94E20085E093
S11307600E94F00060E085E10E94E20085E00E94C2
S1130770F00060E086E10E94E20084E00E94F00064
S113078060E087E10E94E20089EB91E00E94F400BE
S113079008959C01295631402A303105F0F460E077
S11307A084E10E94E20085E00E94F00060E085E1BF
S11307B00E94E20085E00E94F00060E086E10E9471
S11307C0E20085E00E94F00060E087E10E94E20020
S11307D089EB91E00E94F40008959C012F5531406B
S11307E02A30310528F560E084E10E94E20085E0CA
S11307F00E94F00060E085E10E94E20085E00E9432
S1130800F00060E086E10E94E20085E00E94F000D2
S113081060E087E10E94E20081E00E94F00060E075
S113082088E10E94E2008AEB91E00E94F4000895BE
S11308309C01255531402A30310528F560E084E1DA
S11308400E94E20085E00E94F00060E085E10E94E1
S1130850E20085E00E94F00060E086E10E94E20090
S113086085E00E94F00060E087E10E94E20082E0FF
S11308700E94F00060E088E10E94E2008AEB91E0CF
S11308800E94F40008959C012B5431402A30310514
S113089028F560E084E10E94E20085E00E94F00017
S11308A060E085E10E94E20085E00E94F00060E0E3
S11308B086E10E94E20085E00E94F00060E087E1AA
S11308C00E94E20083E00E94F00060E088E10E9460
S11308D0E2008AEB91E00E94F40008959C01215407
S11308E031402A30310528F560E084E10E94E200BD
S11308F085E00E94F00060E085E10E94E20085E06E
S11309000E94F00060E086E10E94E20085E00E941F
S1130910F00060E087E10E94E20084E00E94F000C1
S113092060E088E10E94E2008AEB91E00E94F4001A
S113093008959C01275331402A30310528F560E0A1
S113094084E10E94E20085E00E94F00060E085E11D
S11309500E94E20085E00E94F00060E086E10E94CF
S1130960E20085E00E94F00060E087E10E94E2007E
S113097085E00E94F00060E088E10E94E2008AEBDA
S113098091E00E94F40008959C012D5231402A30D8
S1130990310560F560E084E10E94E20085E00E9498
S11309A0F00060E085E10E94E20085E00E94F00032
S11309B060E086E10E94E20085E00E94F00060E0D1
S11309C087E10E94E20085E00E94F00060E088E197
S11309D00E94E20081E00E94F00060E089E10E9450
S11309E0E2008BEB91E00E94F40008959C012352F5
S11309F031402A30310560F560E084E10E94E20074
S1130A0085E00E94F00060E085E10E94E20085E05C
S1130A100E94F00060E086E10E94E20085E00E940E
S1130A20F00060E087E10E94E20085E00E94F000AF
S1130A3060E088E10E94E20082E00E94F00060E051
S1130A4089E10E94E2008BEB91E00E94F40008959A
S1130A509C01295131402A30310560F560E084E180
S1130A600E94E20085E00E94F00060E085E10E94BF
S1130A70E20085E00E94F00060E086E10E94E2006E
S1130A8085E00E94F00060E087E10E94E20085E0DA
S1130A900E94F00060E088E10E94E20083E00E948E
S1130AA0F00060E089E10E94E2008BEB91E00E949B
S1130AB0F40008959C012F5031402A30310560F52F
S1130AC060E084E10E94E20085E00E94F00060E0C2
S1130AD085E10E94E20085E00E94F00060E086E18A
S1130AE00E94E20085E00E94F00060E087E10E943D
S1130AF0E20085E00E94F00060E088E10E94E200EC
S1130B0084E00E94F00060E089E10E94E2008BEB47
S1130B1091E00E94F40008959C01255031402A3050
S1130B20310560F560E084E10E94E20085E00E9406
S1130B30F00060E085E10E94E20085E00E94F000A0
S1130B4060E086E10E94E20085E00E94F00060E03F
S1130B5087E10E94E20085E00E94F00060E088E105
S1130B600E94E20085E00E94F00060E089E10E94BA
S1130B70E2008BEB91E00E94F40008959C012B5F4E
S1130B8031092A30310598F560E084E10E94E200E1
S1130B9085E00E94F00060E085E10E94E20085E0CB
S1130BA00E94F00060E086E10E94E20085E00E947D
S1130BB0F00060E087E10E94E20085E00E94F0001E
S1130BC060E088E10E94E20085E00E94F00060E0BD
S1130BD089E10E94E20081E00E94F00060E08AE185
S1130BE00E94E2008CEB91E00E94F40008959C01C5
S1130BF0215F31092A30310598F560E084E10E94D3
S1130C00E20085E00E94F00060E085E10E94E200DD
S1130C1085E00E94F00060E086E10E94E20085E049
S1130C200E94F00060E087E10E94E20085E00E94FB
S1130C30F00060E088E10E94E20085E00E94F0009C
S1130C4060E089E10E94E20082E00E94F00060E03E
S1130C508AE10E94E2008CEB91E00E94F400089586
S1130C609C01275E31092A30310598F560E084E162
S1130C700E94E20085E00E94F00060E085E10E94AD
S1130C80E20085E00E94F00060E086E10E94E2005C
S1130C9085E00E94F00060E087E10E94E20085E0C8
S1130CA00E94F00060E088E10E94E20085E00E947A
S1130CB0F00060E089E10E94E20083E00E94F0001D
S1130CC060E08AE10E94E2008CEB91E00E94F40073
S1130CD008959C012D5D31092A30310598F560E0B5
S1130CE084E10E94E20085E00E94F00060E085E17A
S1130CF00E94E20085E00E94F00060E086E10E942C
S1130D00E20085E00E94F00060E087E10E94E200DA
S1130D1085E00E94F00060E088E10E94E20085E046
S1130D200E94F00060E089E10E94E20084E00E94F9
S1130D30F00060E08AE10E94E2008CEB91E00E9406
S1130D40F40008959C01235D31092A30310598F59A
S1130D5060E084E10E94E20085E00E94F00060E02F
S1130D6085E10E94E20085E00E94F00060E086E1F7
S1130D700E94E20085E00E94F00060E087E10E94AA
S1130D80E20085E00E94F00060E088E10E94E20059
S1130D9085E00E94F00060E089E10E94E20085E0C5
S1130DA00E94F00060E08AE10E94E2008CEB91E096
S1130DB00E94F40008959C01295C31092A30310510
S1130DC0D0F560E084E10E94E20085E00E94F0003A
S1130DD060E085E10E94E20085E00E94F00060E0AE
S1130DE086E10E94E20085E00E94F00060E087E175
S1130DF00E94E20085E00E94F00060E088E10E9429
S1130E00E20085E00E94F00060E089E10E94E200D7
S1130E1085E00E94F00060E08AE10E94E20081E047
S1130E200E94F00060E08BE10E94E2008DEB91E013
S1130E300E94F40008959C012F5B31092A3031058A
S1130E40D0F560E084E10E94E20085E00E94F000B9
S1130E5060E085E10E94E20085E00E94F00060E02D
S1130E6086E10E94E20085E00E94F00060E087E1F4
S1130E700E94E20085E00E94F00060E088E10E94A8
S1130E80E20085E00E94F00060E089E10E94E20057
S1130E9085E00E94F00060E08AE10E94E20082E0C6
S1130EA00E94F00060E08BE10E94E2008DEB91E093
S1130EB00E94F40008959C01255B31092A30310514
S1130EC0D0F560E084E10E94E20085E00E94F00039
S1130ED060E085E10E94E20085E00E94F00060E0AD
S1130EE086E10E94E20085E00E94F00060E087E174
S1130EF00E94E20085E00E94F00060E088E10E9428
S1130F00E20085E00E94F00060E089E10E94E200D6
S1130F1085E00E94F00060E08AE10E94E20083E044
S1130F200E94F00060E08BE10E94E2008DEB91E012
S1130F300E94F40008959C012B5A31092A3031058E
S1130F40D0F560E084E10E94E20085E00E94F000B8
S1130F5060E085E10E94E20085E00E94F00060E02C
S1130F6086E10E94E20085E00E94F00060E087E1F3
S1130F700E94E20085E00E94F00060E088E10E94A7
S1130F80E20085E00E94F00060E089E10E94E20056
S1130F9085E00E94F00060E08AE10E94E20084E0C3
S1130FA00E94F00060E08BE10E94E2008DEB91E092
S1130FB00E94F40008959C01215A31092A30310518
S1130FC0D0F560E084E10E94E20085E00E94F00038
S1130FD060E085E10E94E20085E00E94F00060E0AC
S1130FE086E10E94E20085E00E94F00060E087E173
S1130FF00E94E20085E00E94F00060E088E10E9427
S1131000E20085E00E94F00060E089E10E94E200D5
S113101085E00E94F00060E08AE10E94E20085E041
S11310200E94F00060E08BE10E94E2008DEB91E011
S11310300E94F40008959C01275931092A30310592
S113104008F041C060E084E10E94E20085E00E9473
S1131050F00060E085E10E94E20085E00E94F0007B
S113106060E086E10E94E20085E00E94F00060E01A
S113107087E10E94E20085E00E94F00060E088E1E0
S11310800E94E20085E00E94F00060E089E10E9495
S1131090E20085E00E94F00060E08AE10E94E20044
S11310A085E00E94F00060E08BE10E94E20081E0B4
S11310B00E94F00060E08CE10E94E2008EEB91E07F
S11310C00E94F40008959C012D5831092A303105FD
S11310D008F041C060E084E10E94E20085E00E94E3
S11310E0F00060E085E10E94E20085E00E94F000EB
S11310F060E086E10E94E20085E00E94F00060E08A
S113110087E10E94E20085E00E94F00060E088E14F
S11311100E94E20085E00E94F00060E089E10E9404
S1131120E20085E00E94F00060E08AE10E94E200B3
S113113085E00E94F00060E08BE10E94E20082E022
S11311400E94F00060E08CE10E94E2008EEB91E0EE
S11311500E94F40008959C01235831092A30310576
S113116008F041C060E084E10E94E20085E00E9452
S1131170F00060E085E10E94E20085E00E94F0005A
S113118060E086E10E94E20085E00E94F00060E0F9
S113119087E10E94E20085E00E94F00060E088E1BF
S11311A00E94E20085E00E94F00060E089E10E9474
S11311B0E20085E00E94F00060E08AE10E94E20023
S11311C085E00E94F00060E08BE10E94E20083E091
S11311D00E94F00060E08CE10E94E2008EEB91E05E
S11311E00E94F40008959C01295731092A303105E1
S11311F008F041C060E084E10E94E20085E00E94C2
S1131200F00060E085E10E94E20085E00E94F000C9
S113121060E086E10E94E20085E00E94F00060E068
S113122087E10E94E20085E00E94F00060E088E12E
S11312300E94E20085E00E94F00060E089E10E94E3
S1131240E20085E00E94F00060E08AE10E94E20092
S113125085E00E94F00060E08BE10E94E20084E0FF
S11312600E94F00060E08CE10E94E2008EEB91E0CD
S11312700E94F40008959C012F5631092A3031054B
S113128008F041C060E084E10E94E20085E00E9431
S1131290F00060E085E10E94E20085E00E94F00039
S11312A060E086E10E94E20085E00E94F00060E0D8
S11312B087E10E94E20085E00E94F00060E088E19E
S11312C00E94E20085E00E94F00060E089E10E9453
S11312D0E20085E00E94F00060E08AE10E94E20002
S11312E085E00E94F00060E08BE10E94E20085E06E
S11312F00E94F00060E08CE10E94E2008EEB91E03D
S11313000E94F40008959C01255631092A303105C4
S113131008F048C060E084E10E94E20085E00E9499
S1131320F00060E085E10E94E20085E00E94F000A8
S113133060E086E10E94E20085E00E94F00060E047
S113134087E10E94E20085E00E94F00060E088E10D
S11313500E94E20085E00E94F00060E089E10E94C2
S1131360E20085E00E94F00060E08AE10E94E20071
S113137085E00E94F00060E08BE10E94E20085E0DD
S11313800E94F00060E08CE10E94E20081E00E9493
S1131390F00060E08DE10E94E2008FEB91E00E949A
S11313A0F40008959C012B5531092A30310508F0C9
S11313B048C060E084E10E94E20085E00E94F00001
S11313C060E085E10E94E20085E00E94F00060E0B8
S11313D086E10E94E20085E00E94F00060E087E17F
S11313E00E94E20085E00E94F00060E088E10E9433
S11313F0E20085E00E94F00060E089E10E94E200E2
S113140085E00E94F00060E08AE10E94E20085E04D
S11314100E94F00060E08BE10E94E20085E00E94FF
S1131420F00060E08CE10E94E20082E00E94F000A3
S113143060E08DE10E94E2008FEB91E00E94F400F5
S113144008959C01215531092A30310508F048C01E
S113145060E084E10E94E20085E00E94F00060E028
S113146085E10E94E20085E00E94F00060E086E1F0
S11314700E94E20085E00E94F00060E087E10E94A3
S1131480E20085E00E94F00060E088E10E94E20052
S113149085E00E94F00060E089E10E94E20085E0BE
S11314A00E94F00060E08AE10E94E20085E00E9470
S11314B0F00060E08BE10E94E20085E00E94F00011
S11314C060E08CE10E94E20083E00E94F00060E0B2
S11314D08DE10E94E2008FEB91E00E94F4000895F8
S11314E09C01275431092A30310508F048C060E0D6
S11314F084E10E94E20085E00E94F00060E085E162
S11315000E94E20085E00E94F00060E086E10E9413
S1131510E20085E00E94F00060E087E10E94E200C2
S113152085E00E94F00060E088E10E94E20085E02E
S11315300E94F00060E089E10E94E20085E00E94E0
S1131540F00060E08AE10E94E20085E00E94F00081
S113155060E08BE10E94E20085E00E94F00060E020
S11315608CE10E94E20084E00E94F00060E08DE1E2
S11315700E94E2008FEB91E00E94F40008959C0128
S11315802D5331092A30310508F048C060E084E168
S11315900E94E20085E00E94F00060E085E10E9484
S11315A0E20085E00E94F00060E086E10E94E20033
S11315B085E00E94F00060E087E10E94E20085E09F
S11315C00E94F00060E088E10E94E20085E00E9451
S11315D0F00060E089E10E94E20085E00E94F000F2
S11315E060E08AE10E94E20085E00E94F00060E091
S11315F08BE10E94E20085E00E94F00060E08CE153
S11316000E94E20085E00E94F00060E08DE10E940B
S1131610E2008FEB91E00E94F40008959C012353B3
S113162031092A30310508F04FC060E084E10E949E
S1131630E20085E00E94F00060E085E10E94E200A3
S113164085E00E94F00060E086E10E94E20085E00F
S11316500E94F00060E087E10E94E20085E00E94C1
S1131660F00060E088E10E94E20085E00E94F00062
S113167060E089E10E94E20085E00E94F00060E001
S11316808AE10E94E20085E00E94F00060E08BE1C4
S11316900E94E20085E00E94F00060E08CE10E947C
S11316A0E20085E00E94F00060E08DE10E94E2002B
S11316B081E00E94F00060E08EE10E94E20080EC94
S11316C091E00E94F40008959C01295231092A30C6
S11316D0310508F04FC060E084E10E94E20085E03B
S11316E00E94F00060E085E10E94E20085E00E9433
S11316F0F00060E086E10E94E20085E00E94F000D4
S113170060E087E10E94E20085E00E94F00060E072
S113171088E10E94E20085E00E94F00060E089E137
S11317200E94E20085E00E94F00060E08AE10E94ED
S1131730E20085E00E94F00060E08BE10E94E2009C
S113174085E00E94F00060E08CE10E94E20085E008
S11317500E94F00060E08DE10E94E20082E00E94BD
S1131760F00060E08EE10E94E20080EC91E00E94D3
S1131770F40008959C012F5131092A30310508F0F5
S11317804FC060E084E10E94E20085E00E94F00026
S113179060E085E10E94E20085E00E94F00060E0E4
S11317A086E10E94E20085E00E94F00060E087E1AB
S11317B00E94E20085E00E94F00060E088E10E945F
S11317C0E20085E00E94F00060E089E10E94E2000E
S11317D085E00E94F00060E08AE10E94E20085E07A
S11317E00E94F00060E08BE10E94E20085E00E942C
S11317F0F00060E08CE10E94E20085E00E94F000CD
S113180060E08DE10E94E20083E00E94F00060E06D
S11318108EE10E94E20080EC91E00E94F4000895C1
S11318209C01255131092A30310508F04FC060E090
S113183084E10E94E20085E00E94F00060E085E11E
S11318400E94E20085E00E94F00060E086E10E94D0
S1131850E20085E00E94F00060E087E10E94E2007F
S113186085E00E94F00060E088E10E94E20085E0EB
S11318700E94F00060E089E10E94E20085E00E949D
S1131880F00060E08AE10E94E20085E00E94F0003E
S113189060E08BE10E94E20085E00E94F00060E0DD
S11318A08CE10E94E20085E00E94F00060E08DE19E
S11318B00E94E20084E00E94F00060E08EE10E9459
S11318C0E20080EC91E00E94F400089545970CF04A
S11318D04EC060E084E10E94E20085E00E94F000D6
S11318E060E085E10E94E20085E00E94F00060E093
S11318F086E10E94E20085E00E94F00060E087E15A
S11319000E94E20085E00E94F00060E088E10E940D
S1131910E20085E00E94F00060E089E10E94E200BC
S113192085E00E94F00060E08AE10E94E20085E028
S11319300E94F00060E08BE10E94E20085E00E94DA
S1131940F00060E08CE10E94E20085E00E94F0007B
S113195060E08DE10E94E20085E00E94F00060E01A
S11319608EE10E94E20080EC91E00E94F400089570
S113197061E087E290E00E94530062E087E290E039
S11319800E94530063E087E290E00E94530064E009
S113199087E290E00E94530065E087E290E00E94B5
S11319A0530060E087E290E00E94530064E084E228
S11319B090E00E94530063E08AE290E00E945F009E
S11319C062E08AE290E00E945F0063E084E290E0DB
S11319D00E94530062E084E290E00E94530063E0BE
S11319E085E290E00E94700062E085E290E00E944F
S11319F0700060E085E290E00E94700064E084E2A0
S1131A0090E00E94530064E085E290E00E94700040
S1131A100895EF92FF920F931F93CF93DF93CDB767
S1131A20DEB7E0970FB6F894DEBF0FBECDBF80E3FC
S1131A30E1E0F1E0DE01119601900D928A95E1F763
S1131A408CE00E94040160E081E00E94E2008CECE2
S1131A5091E00E94F40062E081E00E94E20088EDDF
S1131A6091E00E94F40080E40E94DA008E010F5F8E
S1131A701F4F7E0181E3E80EF11CF80181918F0173
S1131A800E94DE000E151F05C1F780E80E94DA00EF
S1131A90E0960FB6F894DEBF0FBECDBFDF91CF91B5
S1131AA01F910F91FF90EF90089561E088E290E01C
S1131AB00E94700062E088E290E00E94700063E09F
S1131AC088E290E00E94700064E088E290E00E9466
S1131AD0700065E088E290E00E9470000895833011
S1131AE09105F1F034F48130910549F0029769F0E1
S1131AF008958430910521F10597B9F1089561E0C5
S1131B0088E290E00E948900089561E088E290E014
S1131B100E94890062E088E290E00E9489000895B2
S1131B2061E088E290E00E94890062E088E290E04F
S1131B300E94890063E088E290E00E948900089591
S1131B4061E088E290E00E94890062E088E290E02F
S1131B500E94890063E088E290E00E94890064E0CA
S1131B6088E290E00E948900089561E088E290E0B4
S1131B700E94890062E088E290E00E94890063E0AC
S1131B8088E290E00E94890064E088E290E00E948C
S1131B90890065E088E290E00E94890008950E942F
S1131BA0090D87E690E00E9412100E94B80C0E9472
S1131BB0550DE1EBF0E0808187608083E0E7F0E0A1
S1131BC0808181608083E9E6F0E080818C6080839D
S1131BD0E99A808183608083E89A789404EE11E026
S1131BE0FF24F39464E085E290E00E947000809109
S1131BF00001813089F58091EC018130B9F487ECE2
S1131C0090E00197F1F700C0000062E085E290E007
S1131C100E947D0095E39A95F1F7000062E085E269
S1131C2090E00E9470001092000116C0E7ECF0E012
S1131C303197F1F700C0000063E085E290E00E9474
S1131C407D00F5E3FA95F1F7000063E085E290E0AA
S1131C500E94700010920001F801608171818281FC
S1131C60938124813581468157810E946C11181615
S1131C704CF4F80164817581868197810E94C110BA
S1131C80EB0108C0F80160817181828193810E9417
S1131C90C110EB01CE010E944A02CE010E949E01B6
S1131CA0C091EC01D0E0E091EC01F0E0EE0FFF1FF9
S1131CB0EE0FFF1FEC51FE4F608171818281938191
S1131CC021E331EB49E15EE30E947111CC0FDD1F8A
S1131CD0CC0FDD1FCC51DE4F688379838A839B83CD
S1131CE0E091EC01F0E0EE0FFF1FEE0FFF1FEC514F
S1131CF0FE4F60817181828193810E94C110DC0159
S1131D00CB014AE062E372E00E94DE118091EC01B3
S1131D1042E352E0B8010E944601C8010E94010258
S1131D208091EC01811103C0F092EC015BCF109221
S1131D30EC0158CF1F920F920FB60F9211242F93DC
S1131D403F934F935F936F937F938F939F93AF933F
S1131D50BF93CF93DF93EF93FF93C4EED1E06881F9
S1131D6079818A819B8120E030E040E85FE30E9432
S1131D705010688379838A839B8363E089E290E0CF
S1131D800E9495008111EBCF81E080930001FF91C7
S1131D90EF91DF91CF91BF91AF919F918F917F91FF
S1131DA06F915F914F913F912F910F900FBE0F90C4
S1131DB01F9018951F920F920FB60F9211242F9314
S1131DC03F934F935F936F937F938F939F93AF93BF
S1131DD0BF93CF93DF93EF93FF93C4EED1E06C8175
S1131DE07D818E819F8120E030E040E85FE30E94A6
S1131DF050106C837D838E839F8362E089E290E040
S1131E000E9495008111EBCF81E080930001FF9146
S1131E10EF91DF91CF91BF91AF919F918F917F917E
S1131E206F915F914F913F912F910F900FBE0F9043
S1131E301F9018951F920F920FB60F9211242F9393
S1131E403F934F935F936F937F938F939F93AF933E
S1131E50BF93EF93FF93E4EEF1E06081718182819F
S1131E60938124813581468157810E946C11181613
S1131E705CF46091E8017091E9018091EA0190912C
S1131E80EB010E94C1100AC06091E4017091E50168
S1131E908091E6019091E7010E94C110CB019B0162
S1131EA0295231092A30310558F4E1EBF0E0808100
S1131EB08760808364E085E290E00E94890049C0E5
S1131EC09B012F5131092A30310570F4E1EBF0E028
S1131ED080818E7F808380818660808364E085E258
S1131EE090E00E94890035C09B01255131092A30B8
S1131EF0310570F4E1EBF0E080818D7F8083808197
S1131F008560808364E085E290E00E94890021C0BE
S1131F100B970A9770F4E1EBF0E080818C7F80836B
S1131F2080818460808364E085E290E00E9489007F
S1131F3010C06B3071056CF4E1EBF0E080818B7FB5
S1131F40808380818360808364E085E290E00E94E6
S1131F508900FF91EF91BF91AF919F918F917F91F4
S1131F606F915F914F913F912F910F900FBE0F9002
S1131F701F9018951F920F920FB60F9211242F9352
S1131F808F939F93EF93FF938091C0002091C6009D
S1131F908C71E091EF01EF5FEF719091EE01E91721
S1131FA039F0E093EF01F0E0EE50FE4F208301C0E2
S1131FB082E09091ED01892B8093ED01FF91EF91E7
S1131FC09F918F912F910F900FBE0F901F90189596
S1131FD01F920F920FB60F9211248F939F93EF933A
S1131FE0FF939091F1018091F001981769F0E091CD
S1131FF0F001EF5FEF71E093F001F0E0EE5EFD4F72
S113200080818093C60005C0E1ECF0E080818F7D83
S11320108083FF91EF919F918F910F900FBE0F904E
S11320201F9018951092F1011092F0011092EF0197
S11320301092EE0199231CF422E02093C0009078C2
S11320409093C5008093C40088E98093C10086E022
S11320508093C20008952091F1012F5F2F71909118
S1132060F0012917E1F3E22FF0E0EE5EFD4F8083EB
S11320702093F101E1ECF0E0808180628083089597
S1132080CF93DF93EC018881882331F021960E945D
S11320902B1089918111FBCFDF91CF910895505876
S11320A0BB27AA270E9467100C9432110E942411A6
S11320B038F00E942B1120F039F49F3F19F426F4D4
S11320C00C9421110EF4E095E7FB0C941B11E92FFD
S11320D00E94431158F3BA176207730784079507E0
S11320E020F079F4A6F50C9465110EF4E0950B2E0E
S11320F0BA2FA02D0B01B90190010C01CA01A00156
S11321001124FF27591B99F0593F50F4503E68F1B0
S11321101A16F040A22F232F342F4427585FF3CFF1
S1132120469537952795A795F0405395C9F77EF4C2
S11321301F16BA0B620B730B840BBAF09150A1F00B
S1132140FF0FBB1F661F771F881FC2F70EC0BA0F91
S1132150621F731F841F48F4879577956795B79519
S1132160F7959E3F08F0B0CF9395880F08F0992714
S1132170EE0F9795879508950E94F71008F481E073
S113218008950E94C8106894B1110C9466110895C2
S11321900E944B1188F09F5798F0B92F9927B75197
S11321A0B0F0E1F0660F771F881F991F1AF0BA95F7
S11321B0C9F714C0B13091F00E946511B1E00895DF
S11321C00C946511672F782F8827B85F39F0B93FD1
S11321D0CCF3869577956795B395D9F73EF49095AA
S11321E08095709561957F4F8F4F9F4F0895990FFC
S11321F00008550FAA0BE0E8FEEF16161706E807CD
S1132200F907C0F012161306E407F50798F0621BED
S1132210730B840B950B39F40A2661F0232B242BC2
S1132220252B21F408950A2609F4A140A6958FEFE1
S1132230811D811D089597F99F6780E870E060E033
S113224008959FEF80EC089500240A94161617064B
S113225018060906089500240A9412161306140693
S113226005060895092E0394000C11F4882352F0F6
S1132270BB0F40F4BF2B11F460FF04C06F5F7F4FAE
S11322808F4F9F4F089557FD9058440F551F59F095
S11322905F3F71F04795880F97FB991F61F09F3F4F
S11322A079F087950895121613061406551FF2CF78
S11322B04695F1DF08C0161617061806991FF1CFC8
S11322C086957105610508940895E894BB276627EF
S11322D07727CB0197F908950E94F71008F48FEF40
S11322E008950E9484110C9432110E94241138F034
S11322F00E942B1120F0952311F00C941B110C94C7
S1132300211111240C9466110E94431170F3959FBE
S1132310C1F3950F50E0551F629FF001729FBB27D8
S1132320F00DB11D639FAA27F00DB11DAA1F649F74
S11323306627B00DA11D661F829F2227B00DA11D27
S1132340621F739FB00DA11D621F839FA00D611DAD
S1132350221F749F3327A00D611D231F849F600DCE
S1132360211D822F762F6A2F11249F5750409AF0F7
S1132370F1F088234AF0EE0FFF1FBB1F661F771F83
S1132380881F91505040A9F79E3F510580F00C944E
S11323901B110C9466115F3FE4F3983ED4F38695C9
S11323A077956795B795F795E7959F5FC1F7FE2BEE
S11323B0880F911D9695879597F90895BB274A3004
S11323C031F4992322F4BDE2909581959F4F0C94AA
S11323D0EA11BB27FB015527AA27880F991FAA1FBB
S11323E0A41710F0A41B83955051B9F7A05DAA332C
S11323F008F0A95DA193009779F7B111B1931192F7
S1132400CB010C940312DC01FC01672F719177233B
S1132410E1F7329704C07C916D9370836291AE179B
S10D2420BF07C8F30895F894FFCF36
S113242A010000000000000000101010101010102D
S113243A1018181818181818181C1C1C1C1C1C1CFA
S113244A1C1E1E1E1E1E1E1E1E1F1F1F1F1F1F1F99
S113245A1F414C4C20434C4541522100505249489B
S113246A4F524956412100212121534C4F572121D2
S113247A210021212153544F50212121004F6273FD
S113248A7461636C657320696E2066726F6E742062
S113249A616E64206261636B210A004F6273746126
S11324AA636C6520696E2066726F6E74210A004F30
S11324BA62737461636C6520696E206261636B2167
S11324CA0A004E6F206F62737461636C65206E65D7
S11324DA61726279210A00202020202020202020F5
S11324EA20202020202020202020200064697374CA
S11324FA5F66726F6E743A00646973745F626163D3
S107250A6B203A0004
S9030000FC
