S00E000030362D6C63642E7372656350
S11300000C9434000C9451000C9451000C94510045
S11300100C9451000C9451000C9451000C94510018
S11300200C9451000C9447010C9451000C94510011
S11300300C9451000C9451000C9451000C945100F8
S11300400C9463020C9451000C9451000C945100D4
S11300500C9451000C9451000C9451000C945100D8
S11300600C9451000C94510011241FBECFEFD8E022
S1130070DEBFCDBF11E0A0E0B1E0EAEDF8E002C0E0
S113008005900D92A833B107D9F721E0A8E3B1E0B8
S113009001C01D92AE33B207E1F70E94FA000C943E
S11300A06B040C940000299A85E08A95F1F700000E
S11300B029980895CF93C82F662311F0289A01C078
S11300C02898549A559A569A579A5F985E985D98CC
S11300D05C98CC230CF45F9AC6FD5E9AC5FD5D9ACC
S11300E0C4FD5C9A0E9453005F985E985D985C988A
S11300F0C3FD5F9AC2FD5E9AC1FD5D9AC0FD5C9A24
S11301000E9453005C9A5D9A5E9A5F9A87EB9BE02B
S11301100197F1F700C00000CF91089560E00E94BC
S11301205A00089561E00E945A000895611104C0C4
S113013080580E948E00089580540E948E00089575
S113014081E00E948E00089561E00E945A000895A3
S1130150CF93DF93EC012196FC018081882329F061
S11301600E94A40089918111FBCFDF91CF91089562
S1130170CF93C82F209A559A219A549A559A569AF1
S1130180579A8FEF99EF0197F1F700C000005D9A3D
S11301905C9A0E9453008FE19EE40197F1F700C03E
S11301A000000E9453008FEF90E00197F1F700C028
S11301B000000E9453008FEF90E00197F1F700C018
S11301C000005C980E9453008FEF90E00197F1F7D4
S11301D000C0000088E20E948E0088E00E948E0029
S11301E00E94A00086E00E948E008C2F0E948E0048
S11301F0CF9108958CE00E94B80080E40E948E00A4
S1130200C0E0D1E000E311E089910E949200C017A0
S1130210D107D1F780E80E948E0080E00E94A400FC
S113022060E081E00E94960080E391E00E94A800D3
S113023060E08BE00E94960080E30E94A40061E0ED
S113024081E00E94960082E60E94A40061E08BE0B7
S11302500E94960083E60E94A400E1EBF0E0808116
S113026087608083908189238083E0E7F0E0808148
S11302708160808385B58D7F85BD85B5856085BDAD
S1130280EEE6F0E08081816080837894FFCF1F9256
S11302900F920FB60F9211242F933F934F935F93B6
S11302A06F937F938F939F93AF93BF93EF93FF933A
S11302B0CF93DF9300D0CDB7DEB780E290E29A838C
S11302C0898380913D018F5F863018F480933D01CE
S11302D0E5C010923D0180913C018F5F80933C0109
S11302E08A3008F4CCC010923C014AE0BE016F5F32
S11302F07F4F80E090E00E94360460E087E00E9437
S11303009600CE0101960E94A80060913B016F5FA8
S113031060933B0170E080E090E00E943B039B010E
S1130320AC010E94A1030E940503DC01CB014AE059
S1130330BE016F5F7F4F0E94360460E08BE00E9435
S11303409600CE0101960E94A80080913B018C3357
S113035008F473C010923B014AE0BE016F5F7F4F07
S113036080E090E00E94360460E085E00E94960000
S1130370CE0101960E94A80060E084E00E949600ED
S1130380CE0101960E94A80060E08BE00E949600D6
S1130390CE0101960E94A80060E08CE00E949600C5
S11303A080E00E94A40060E08DE00E94960080E05E
S11303B00E94A40060E08EE00E94960080E00E940B
S11303C0A40080913A018F5F80933A018C3398F0B6
S11303D010923A014AE0BE016F5F7F4F80E090E0E7
S11303E00E94360460E082E00E949600CE010196ED
S11303F00E94A80053C08A3080F44AE0BE016F5FB7
S11304007F4F90E00E94360460E082E00E949600F4
S1130410CE0101960E94A80041C04AE0BE016F5F70
S11304207F4F90E00E94360460E081E00E949600D5
S1130430CE0101960E94A80031C08A3080F44AE0BF
S1130440BE016F5F7F4F90E00E94360460E085E05C
S11304500E949600CE0101960E94A8001FC04AE0A7
S1130460BE016F5F7F4F90E00E94360460E084E03D
S11304700E949600CE0101960E94A8000FC04AE097
S1130480BE016F5F7F4F90E00E94360460E087E01A
S11304900E949600CE0101960E94A8000F900F9032
S11304A0DF91CF91FF91EF91BF91AF919F918F9188
S11304B07F916F915F914F913F912F910F900FBE5C
S11304C00F901F9018951F920F920FB60F92112440
S11304D02F933F934F935F936F937F938F939F9348
S11304E0AF93BF93EF93FF9380913901863008F463
S11304F06CC08091380191E0980F9093380121E00D
S1130500209339019C3008F457C01092380161E0FF
S113051081E00E94960080E00E94A40061E082E0F5
S11305200E94960080E00E94A40061E083E00E94A3
S1130530960080E00E94A40061E084E00E9496009E
S113054080E00E94A40061E085E00E94960080E0C3
S11305500E94A40061E086E00E94960080E00E9470
S1130560A40061E087E00E94960080E00E94A4005D
S113057061E088E00E94960080E00E94A40061E0AF
S113058089E00E94960080E00E94A40061E08AE075
S11305900E94960080E00E94A40061E08BE00E942B
S11305A0960080E00E94A40061E08CE00E94960026
S11305B080E00E94A40013C061E08E5F0E94960058
S11305C0809139010E94A4000AC08091380161E041
S11305D08F5F0E949600809139010E94A40080914F
S11305E039018F5F80933901FF91EF91BF91AF91F2
S11305F09F918F917F916F915F914F913F912F9137
S11306000F900FBE0F901F9018950E940C036894D2
S1130610B1110C949B0308950E94800388F09F57A6
S113062098F0B92F9927B751B0F0E1F0660F771F12
S1130630881F991F1AF0BA95C9F714C0B13091F008
S11306400E949A03B1E008950C949A03672F782FBF
S11306508827B85F39F0B93FCCF3869577956795CD
S1130660B395D9F73EF490958095709561957F4F39
S11306708F4F9F4F0895E89409C097FB3EF49095DF
S11306808095709561957F4F8F4F9F4F9923A9F067
S1130690F92F96E9BB279395F695879577956795F6
S11306A0B795F111F8CFFAF4BB0F11F460FF1BC03A
S11306B06F5F7F4F8F4F9F4F16C0882311F096E9CD
S11306C011C0772321F09EE8872F762F05C066237B
S11306D071F096E8862F70E060E02AF09A95660F34
S11306E0771F881FDAF7880F9695879597F90895ED
S11306F057FD9058440F551F59F05F3F71F04795CF
S1130700880F97FB991F61F09F3F79F087950895B3
S1130710121613061406551FF2CF4695F1DF08C0D2
S1130720161617061806991FF1CF869571056105EF
S113073008940895E894BB2766277727CB0197F997
S113074008950E94B4030C9425040E94170438F001
S11307500E941E0420F0952311F00C940E040C94B6
S1130760140411240C949B030E94780370F3959F46
S1130770C1F3950F50E0551F629FF001729FBB2794
S1130780F00DB11D639FAA27F00DB11DAA1F649F30
S11307906627B00DA11D661F829F2227B00DA11DE3
S11307A0621F739FB00DA11D621F839FA00D611D69
S11307B0221F749F3327A00D611D231F849F600D8A
S11307C0211D822F762F6A2F11249F5750409AF0B3
S11307D0F1F088234AF0EE0FFF1FBB1F661F771F3F
S11307E0881F91505040A9F79E3F510580F00C940A
S11307F00E040C949B035F3FE4F3983ED4F3869578
S113080077956795B795F795E7959F5FC1F7FE2BA9
S1130810880F911D9695879597F9089597F99F6785
S113082080E870E060E008959FEF80EC0895002474
S11308300A941616170618060906089500240A9441
S113084012161306140605060895092E0394000CC7
S113085011F4882352F0BB0F40F4BF2B11F460FF56
S113086004C06F5F7F4F8F4F9F4F0895BB274A305F
S113087031F4992322F4BDE2909581959F4F0C9415
S11308804204BB27FB015527AA27880F991FAA1FDB
S1130890A41710F0A41B83955051B9F7A05DAA3397
S11308A008F0A95DA193009779F7B111B193119262
S11308B0CB010C945B04DC01FC01672F719177235D
S11308C0E1F7329704C07C916D9370836291AE1707
S10D08D0BF07C8F30895F894FFCFA2
S11308DA000000000000000010101010101010108A
S11308EA18181818181818181C1C1C1C1C1C1C1C5A
S11308FA1E1E1E1E1E1E1E1E1F1F1F1F1F1F1F1F02
S10B090A30303A30302E300089
S9030000FC
